:020000040000FA
:06000000F7EFABF0120067
:06000800E8EFA6F0120073
:0600180073EFA6F01200D8
:06002A000C00BB580100B0
:10003000DA05000001000000CD590100D6050000DE
:1000400002000000CB590100D405000002000000AE
:10005000C9590100D205000002000000C1EF0000F4
:10006000D905000001000000B2590100610500003F
:1000700017000000B05901005E0F000002000000F0
:10008000AC590100CB05000004000000A459010098
:10009000AB05000008000000E0580100000100006E
:1000A000C4000000DC580100C70500000400000087
:0C00B000DA580100FE020000020000000F
:0400BC00BEEC16F090
:1000C000FD0EDB500F015E5D2CE0FE0E5E5D11E06B
:1000D0001C0EE66EE66A270EE66E0F0EE66E5E51A9
:1000E000DEEC19F056EC1AF002E2E16AE552E16E3C
:1000F0001650FD0EDBCF5EFFDB50FE0812E01C0E3B
:10010000E66EE66AFD0EDB50DEEC19F0270EE66EB9
:100110000F0EE66E56EC1AF002E2E16AE552E16E6D
:100120001650CCEF16F00F015E515F5D01E1120039
:10013000FE0E5F5D1CE0250EE66EE66A010EE66EC1
:10014000020EE66E0F0E17EC1AF01B0E65EC17F0A0
:10015000EF5017EC1AF0E4EC18F0250E79EC1BF0D8
:1001600014EC1DF002E2E16AE552E16E16505ECF3A
:100170005FFF250EE66EE66A42CFE6FF27CF14F05A
:1001800028CF15F079EC1BF0010EE66E020EE66E3C
:100190000F0EE66E14EC1DF002E2E16AE552E16E2C
:1001A00016501200BEEC16F00B0EE12402E3E168DB
:1001B000E652E16EC20EF36E090EF3CFDBFF0F0EB7
:1001C000F36E0A0EF3CFDBFF0F01005101110FE1B7
:1001D00018EC65F006C000FF07C001FFFF0E0F011D
:1001E0000017070E0117000E0027040E01233C0E16
:1001F000E66EE66AE66AC40EE66E010EE66E29EC6D
:1002000096F0146E050EE15C02E2E16AE552E16EE1
:100210001450010EDB6ADF6A31EC18F001E392D072
:10022000C4EC19F04FEC17F08FEC17F0F62A000E23
:10023000F722F8220800080EF5CFDBFF4FEC17F08D
:100240008FEC17F0020EF626000EF722F8220900B6
:10025000020EF5CFDBFF0A00030EF5CFDBFF4FECFC
:1002600017F0D8EC1DF0040EF626000EF722F82247
:100270000900040EF5CFDBFF0A00050EF5CFDBFF0A
:10028000080EDB502BE1090EDBCF08F00A0E76ECEE
:1002900019F03DEC1DF0250E1626000E172212EC6B
:1002A0001CF0040EACEC1EF0050EDB5017207DECAC
:1002B00017F0D950090F5EEC1CF0090EDBCF14F0DB
:1002C0000A0E03EC1AF0D880FE0E14541E0E1554BC
:1002D000000E1654000E175402E2EFD7FFD7080E97
:1002E000DBCF42FF060EDBCF27FF070EDBCF28FF59
:1002F000250E0F012727000E2823020EDB5027258D
:10030000296F030EDB5028212A6F010E2927000ECA
:100310002A23040EDB5029252B6F050EDB502A21E2
:100320002C6F0D0E3D6F3E97FEDE4FEC17F004C0B4
:1003300017F0D8EC1DF00800F5CF26FF8CEC0FF07D
:10034000DF2A6AD70B0EE15C02E2E16AE552E16E58
:10035000CCEF16F073EC1EF0DF6A31EC18F001E31D
:100360008FD0C4EC19F00D0E0F013D5D01E086D079
:10037000DADEF60EDB500F01265D01E07FD0F90ECC
:10038000DB5010E1F70EDBCF12FFF80EDBCF13FFCF
:100390003E87040E3D6FF70EDBCF40FFF80EDBCF3C
:1003A00041FF6AD0000E005D040E015906E3880E7D
:1003B000D8800055130E015503E2006B040E016F47
:1003C00000CF12FF01CF13FF002B000E0123F70E09
:1003D000DBCF10FFF80EDBCF11FFC9EC17F00F01D8
:1003E0003E89F90EDB50040A26E0070A45E1FA0EC1
:1003F000DBCF18F0FB0EDBCF19F0FC0EDB5018241E
:10040000166EFD0EDB50192017EC19F0FA0EDBCF3B
:1004100018FFFB0EDBCF19FFFC0EDBCF1AFFFD0E22
:10042000DBCF1BFF256B270E026F036B046B056B85
:10043000020E3D6F21D0D4EC17F0020E65EC17F0E0
:10044000EECF18F0EFCF19F0D4EC17F01850EE24DF
:10045000166E1950EE2017EC19F067EC1DF002E251
:10046000E16AE552E16E14500F01050E3D6F010E79
:10047000E66E020E6DEC17F0DF5003D0DF2A6DD769
:10048000FE0EE552CCEF16F0F1EC1CF00F013FA987
:1004900003D03F99010E01D0000ECCEF16F0F1EC25
:1004A0001CF0070E0F013D5D02E0000E01D0010EB1
:1004B000CCEF16F0F1EC1CF017EC1CF00F013D51E5
:1004C000080A2EE0010A2CE0050A2AE0020A25E0CB
:1004D000050A18E00D0A0BE0010A09E0070A24E00A
:1004E000020A22E0010A20E0060A1AE11DD06DECA2
:1004F0001DF006E00E512D19FAE10F512E19F7E10A
:10050000080E0CD06DEC1DF006E00E512D19FAE12D
:100510000F512E19F7E10C0E01D00D0E3D6F06D0D4
:10052000E66A140E6DEC17F08CEC0FF0CCEF16F0C1
:10053000F1EC1CF00F013E9757EC1DF0BBDFE552CC
:10054000CCEF16F0F1EC1CF0EEDD3AEC1CF0CAEC4E
:1005500019F0430EE66E0F0EE66E5CEC1AF002E246
:10056000E16AE552E16E145010CF4DFF11CF4EFFFE
:10057000430E146E0F0E44EC1DF0CCEF16F0F1ECB0
:100580001CF0D1DD0F010E512D1902E10F512E1972
:1005900002E0E7EC1CF0CCEF16F073EC1EF021EC5F
:1005A00017F03DCFDFFF070EDF5C06E00B0EDF5CD0
:1005B00003E0F36AF46A21D00F012F512D5D305111
:1005C0002E5910E3E2EC17F01606000E175A2F51C1
:1005D0002D5D186E2E513055196E1AEC1DF044EC3D
:1005E0001DF00BD02D512F5D146E30512E55156E10
:1005F0001406000E155AC3EC1AF0E552CCEF16F0B3
:1006000073EC1EF0E65243EC1EF0DAEC1CF002E153
:10061000000E39D047EC1EF004E1ED5002E19DECF4
:1006200017F00F013F51010B09E1CFEC19F0E2EC9B
:1006300017F0FAEC19F002E34CEC1EF0010EE66E36
:10064000E66AE66EA9EC1BF056EC18F002E2E16AED
:10065000E552E16E14500F012D2B000E2E2329516F
:100660002D5D2A512E5902E3C8EC1AF047EC1EF01A
:1006700005E1ED5003E19DEC17F004D03EBB02D044
:1006800038EC17F0010EE552E552CCEF16F0FFEC16
:100690001CF002E3E168E6528AEC1EF005E19DECF5
:1006A00017F0F36AF46A3DD076EC1DF0F5EC1CF01F
:1006B00069EC17F003E2F90E08EC1AF00F013F5154
:1006C000010B05E1DEEC1DF002E34CEC1EF068ECE2
:1006D0001AF010E329EC1DF0B0EC1EF002E2E16A22
:1006E000E552FEEC1AF0D950FB0FC3EC17F0ED22E7
:1006F000B5EC1EF051EC1EF0B0EC1EF002E2E16A27
:10070000E55209EC1DF0F5EC1CF069EC17F003E381
:100710009DEC17F004D03EBB02D038EC17F02CEC67
:1007200019F0060EE15C02E2E16AE552E16ECCEFFF
:1007300016F0FFEC1CF002E3E168E6528AEC1EF0D2
:1007400005E19DEC17F0F36AF46A44D00F013F51C4
:10075000010B05E1DEEC1DF002E34CEC1EF076EC43
:100760001DF0A0EC1DF069EC17F003E2F80E08ECA8
:100770001AF068EC1AF015E329EC1DF008EC18F0FB
:1007800023EC1AF002E2E16AE552FEEC1AF0166A76
:10079000D950FA0FC3EC17F0EE221650EE22B5EC4A
:1007A0001EF051EC1EF008EC18F023EC1AF002E2F7
:1007B000E16AE55209EC1DF0A0EC1DF069EC17F0C0
:1007C00003E39DEC17F004D03EBB02D038EC17F0E9
:1007D0002CEC19F0060EE15C02E2E16AE552E16EF2
:1007E000CCEF16F0BEEC16F0FB0EDBCF16F0FC0ED5
:1007F000DBCF17F056EC1EF06EEC1CF007EC97F018
:10080000E552E552F3CF18F0F4CF19F0F3CFE6FF3D
:10081000F4CFE6FFFB0EDBCFE6FFB9EC17F037DFD6
:100820001A6E050EE15C02E2E16AE552E16E1A50D1
:100830007EEC1BF0F324146E1750F42044EC1DF0F2
:10084000CCEF16F0BEEC16F008EC18F015EC97F0B3
:10085000E552E552E55207C01AF008C01BF007C088
:10086000E6FF08C0E6FF08EC18F057EC1DF061DF6A
:100870001C6E060EE15C02E2E16AE552E16E1C507C
:10088000F3CF17F0F4CF18F0196ADBEC1EF0EE503E
:10089000F324146EEE50F420156EEE501920166EEF
:1008A00014C007F015C008F0096ECCEF16F0E4ECA8
:1008B0001DF00F01A3EC17F01406000E155A41ECC1
:1008C00018F09FEC19F048EC18F002E2E16AE552EA
:1008D000E16ECCEF16F0BEEC16F0E9EC17F0A5ECEB
:1008E0001DF0F350F41006E021EC17F017EC1CF0AB
:1008F000E7EC1CF0CCEF16F0F1EC1CF00F016FEC04
:100900001BF006E33351315D146E3251345513D070
:1009100033512B5D166E2C513455176E12EC1CF0B2
:100920002951315D186E32512A55196E165018240E
:10093000146E1750192044EC1DF0CCEF16F073EC38
:100940001EF0E652E9EC17F0DAEC1CF002E1000EC2
:1009500028D021EC17F0AAEC1DF00CE0010EE66E99
:10096000E66A98EC1AF073EC17F002E2E16AE552DD
:10097000E16E14500F01332B000E342333512B5DE5
:1009800034512C5902E221EC1CF047EC1EF004E13A
:10099000ED5002E13F8504D03EBB02D038EC17F0A9
:1009A000010EE552E552CCEF16F0BEEC16F01CEC51
:1009B0001CF0020EDB6A030EDB6AE9EC17F0DAECDE
:1009C0001CF003E1F36AF46A84D021EC17F0A4EC84
:1009D00019F002EC1BF008E28AEC17F0F90EEECFEA
:1009E000DBFFFA0EEDCFDBFFF90EDB500F013325F5
:1009F0000001146EFA0EDB500F0134210001156E58
:100A00000F0104EC1DF02CE23351DCEC1AF03455EC
:100A10007DEC17F041EC18F0AAEC1DF017E0020E87
:100A2000DBCFE6FF030EDBCFE6FF98EC1AF0010EFA
:100A300073EC17F002E2E16AE552E16E14504CECFF
:100A400017F0D950FB0FC3EC17F0ED224CEC17F068
:100A5000D950F90F94EC1CF0BEEC17F021EC1CF00F
:100A6000AAEC1DF00CE0E0EC1CF098EC1AF0010E82
:100A700073EC17F002E2E16AE552E16E1450A3EC68
:100A80001AF008500F013327095034234CEC17F0AB
:100A9000D950F90FC3EC17F0ED22DECF16F0DDCF01
:100AA00017F0F90EF8EC1EF0FA0EDB501758156E21
:100AB000F90EDBCF18F0FA0E9FEC1AF002E33F8537
:100AC00004D03EBB02D038EC17F0A4EC19F0C3EC14
:100AD0001AF0040EE15C02E2E16AE552E16ECCEF4D
:100AE00016F0E4EC1DF00F012951DCEC1AF02A5548
:100AF000156E41EC18F0E9EC17F048EC18F002E242
:100B0000E16AE552E16ECCEF16F0FFEC1CF002E377
:100B1000E168E652E16ED950F90F78EC17F003E185
:100B2000F36AF46A82D05BEC1EF091EC1AF0F5ECFB
:100B30001CF0DBCF17F079EC1DF0020EDBCF18F0C4
:100B4000030E9FEC1AF00FE23DEC1DF0F70EF8ECEF
:100B50001EF0F80EDB501758156EF90E14C0DBFFAF
:100B6000FA0E15C0DBFFF70E26EC1CF0F80EDB507A
:100B7000342114C0DEFFDD6ECFEC19F004EC1DF063
:100B800004E275EC1CF09CEC1DF0DE502B5D146E45
:100B9000DD502C59DFEC1EF0A4EC19F0040EDBCF75
:100BA00016F0050E69EC17F00DE3E0EC1CF0D2EC4A
:100BB00018F0010E73EC17F002E2E16AE552E16E03
:100BC00014502FD0CBEC18F0D2EC18F0010E73ECCF
:100BD00017F002E2E16AE552E16E1450F5EC1CF008
:100BE0008CEC1CF073EC1AF0010EE66E040EDBCFF9
:100BF0001AF0050EDBCF1BF0FB0EDB501A24186E2B
:100C0000FC0EDB501B20196E18C0E6FFE66EF3ECFD
:100C100015F01C6E080EE15C02E2E16AE552E16E3D
:100C20001C50A4EC19F0C3EC1AF0060EE15C02E2D1
:100C3000E16AE552E16ECCEF16F073EC1EF06EEC5B
:100C40001CF0010EAAEC1AF057EC1DF05EDF146EDA
:100C5000070EE15C02E2E16AE552E16E1450DF50FA
:100C6000E552CCEF16F0BEEC16F0300EE12402E3B4
:100C7000E168E652E16ED950F90F78EC17F003E124
:100C8000F36AF46A27D15BEC1EF0F70EDB50F35CDD
:100C9000146EF80EB3EC1DF0F5EC1CF0ABEC19F093
:100CA00001E20ED1D950F50F78EC17F00FE04CECC3
:100CB00017F0F50EDBCF16F0F60E69EC17F006E232
:100CC000F50EDBCF08F0F60E07EC1BF0F70E26EC66
:100CD0001CF0F80E74EC18F002E2B9EC1EF0B3EC64
:100CE0001CF0F70EDBCF08F0F80E76EC19F0A3EC51
:100CF0001AF0B0EC1BF0FB0EDBCF08F0FC0E10EC92
:100D00001BF039EC18F001E3DB2A0D0EEFCFDBFF0F
:100D10000F0EDB6AF40EDB500AE0610E49EC1DF0A9
:100D200006E30D0EDB507A0802E3AFEC18F0200E5C
:100D3000F36E0E0E37EC19F006E2040EDB50E76E90
:100D40000E0EE7CFDBFF0E0EE6EC19F006E2020E08
:100D5000DB50E76E0E0EE7CFDBFF0E0E7DEC1DF0D5
:100D6000100FD4EC19F081EC1CF002E2E16AE552BC
:100D7000E16E14500E0EDB50DE26000EDD220E0E4C
:100D800093EC1EF002E119EC1BF0F40EDB505CE07A
:100D90000C0EDB6AE9EC1DF001E38AD0D950100F8C
:100DA000156E000EDA20166E0C0E2AEC1AF010E307
:100DB000D950100F176E000EDA20186E0C0E22ECB0
:100DC0001BF006E3E00E166E7FEC19F086EC1BF0CC
:100DD0007FEC19F00AEC19F00D0EDB50F35C1BE10F
:100DE000F90EDB06DBCF14F0FA0E01E2DB0674EC41
:100DF0001BF042E039EC18F001E3DB2A2BEC1BF08E
:100E0000610E49EC1DF01DE30D0EDB507A0819E36D
:100E1000AFEC18F016D041EC19F013E0BEEC1CF06A
:100E200001E3DB2A0D0EEFCFDBFF610E49EC1DF075
:100E300006E30D0EDB507A0802E3AFEC18F00F0E5C
:100E4000DB6A0C0EDB2AA6D70C0EDB6AE9EC1DF080
:100E50002FE27FEC19F00F010AEC19F00D0EDB50B8
:100E6000F35C17E1F90EDB06DBCF14F0FA0E01E2BA
:100E7000DB0674EC1BF006E14CEC19F00C0E5BEC9D
:100E80001DF028D039EC18F001E3DB2A2BEC1BF025
:100E90000CD041EC19F009E0BEEC1CF001E3DB2AB8
:100EA0000D0EEFCFDBFF0F0EDB6A0C0EDB2ACED769
:100EB0000E0E62EC1DF0F5EC1CF0ABEC19F003E249
:100EC000F368F46807D00E0E0DEC1AF0060F5EEC16
:100ED0001CF02DD7300EE15C02E2E16AE552E16ED2
:100EE000CCEF16F0BEEC16F0310EE12402E3E1681F
:100EF000E652E16ED950F80F78EC17F003E1F36A8F
:100F0000F46A10D15BEC1EF0F60EDB50F35C146E4D
:100F1000F70EB3EC1DF0A0EC1DF0ABEC19F001E204
:100F2000F7D0D950F40F78EC17F00FE04CEC17F035
:100F3000F40EDBCF16F0F50E69EC17F006E2F40EB6
:100F4000DBCF08F0F50E07EC1BF0F60E26EC1CF0DC
:100F5000F70E74EC18F002E2B9EC1EF0B3EC1CF0E2
:100F6000F60EDBCF08F0F70E76EC19F0AEEC1AF0C7
:100F7000B0EC1BF0DBEC1EF00A0EEECFDBFF0B0E2D
:100F8000EECFDBFF0C0EEECFDBFF27EC17F0100EE1
:100F9000DB6AF30EDB5009E08DEC1DF006E30E0E6C
:100FA000DB507A0802E3BAEC18F0200EF36E0F0E55
:100FB00037EC19F003E2040E63EC1BF00F0EE6ECC5
:100FC00019F003E2020E63EC1BF00F0E7DEC1DF036
:100FD000110FD4EC19F081EC1CF002E2E16AE55249
:100FE000E16E14500F0EDB50DE26000EDD220F0ED8
:100FF00093EC1EF002E119EC1BF0F30EDB5053E012
:101000000D0EDB6A0F0EDB5049EC1DF001E378D0CA
:10101000D950110F156E000EDA20166E0D0E2AEC47
:101020001AF010E3D950110F176E000EDA20186E67
:101030000D0E22EC1BF006E3E00E166E88EC19F0A4
:1010400086EC1BF088EC19F00AEC19F00E0EDB5060
:10105000F35C16E1F80EDB06DBCF14F0F90E01E2CB
:10106000DB0674EC1BF039E0BAEC1DF08DEC1DF0E2
:1010700017E30E0EDB507A0813E3BAEC18F010D029
:101080005BEC19F00DE099EC1CF08DEC1DF006E323
:101090000E0EDB507A0802E3BAEC18F0100EDB6A91
:1010A0000D0EDB2AAFD70D0EDB6A0F0EDB5049ECBD
:1010B0001DF026E288EC19F00F010AEC19F00E0E73
:1010C000DB50F35C13E1F80EDB06DBCF14F0F90E16
:1010D00001E2DB0674EC1BF006E14CEC19F00D0E9E
:1010E0005BEC1DF01FD0BAEC1DF007D05BEC19F0E3
:1010F00004E099EC1CF0100EDB6A0D0EDB2AD5D74C
:101100000F0E62EC1DF0A0EC1DF0ABEC19F003E249
:10111000F368F46807D00F0E0DEC1AF0060F5EECC2
:101120001CF043D7310EE15C02E2E16AE552E16E68
:10113000CCEF16F0BEEC16F0F70EDBCFE6FFB5EC09
:101140001AF0DBEC17F0010EE66EE66AA9EC1BF074
:1011500057EC1DF088DD146E0A0EE15C02E2E16AD4
:10116000E552E16E1450CCEF16F0FFEC1CF002E3F8
:10117000E168E652E16EDF6A31EC18F001E3A2D1DA
:10118000C4EC19F0030EDB6A010EDB6A020EDB6AA7
:101190000F013F51020B03E13F51040B10E076ECCD
:1011A00078F000090CE0100E12EC19F00F013F511D
:1011B000040B01E0010EE76E010EE7CFDBFF0F012C
:1011C0003EAB11D0E2ECA8F00F010650395D146E71
:1011D00007503A59156EE83402E2D2EC1AF003E3F4
:1011E000100E12EC19F03EAD09D07BEC1AF002E2C1
:1011F000D2EC1AF003E3100E12EC19F00B0E3D5D69
:101200000BE17BEC1AF002E2D2EC1AF005E3110ECE
:1012100012EC19F00C0E3D6F040E3D5D5FE1CDEC5C
:101220001AF0C5EC18F05AE2E3EC1EF057E087EC38
:101230001CF0E4EC18F0405114184AE14151151823
:1012400047E193EC00F03AEC1CF0AAEC16F034EC19
:101250001BF0CAEC19F056EC1AF002E2E16AE55212
:10126000E16E165092EC1DF0EECF10FFEDCF11FFA6
:10127000AAEC16F00C0E65EC17F0EECF0AFFEECFDD
:101280000BFFEECF0CFFEFCF0DFF0F010A2B0B234F
:101290000C230D231A511825166E1B511921176E98
:1012A00016501025146E17501121156EEFEC1DF01D
:1012B000120E12EC19F0060E3D6FD7EC16F002E29A
:1012C000E16AE552E16E1A500101FC6BFD6B06D03C
:1012D000040EDB2A050EA5E3DB2AA3D7030EDB50A1
:1012E00009E0010EDB5002E0000E01D0010EE66EB7
:1012F0008EEC1BF00F013EB933D0070E3D5D01E0CF
:10130000DFD07DEC18F001E0DBD00F013E51070B80
:1013100006081AE13E51080B01E0010EE76E030ECC
:10132000E7CFDBFFDFCFE6FF5AEC02F0E552DFCF7D
:10133000E6FF5AEC02F0E552030EDB5001E0C0D0AC
:101340000F010E0E3D6FBCD093EC00F0020EE66E66
:10135000100E6DEC17F0C9EC17F0E0EC1AF0B0D0FD
:101360007DEC18F001E0ACD093EC00F00F013D51A2
:101370000C0A69E0060A62E0030A6FE0010A59E01C
:101380000F0A4EE00C0A4CE00D0A41E0030A3DE072
:10139000060A11E0010A69E1E2ECA8F006C039FF93
:1013A00007C03AFFCAEC19F08FEC94F0E552E55211
:1013B0000F01030E28D01C0EE66E0F0EE66ECAEC6F
:1013C00019F0E4EC94F085EC1EF0000915E1E2EC74
:1013D000A8F00F013951065C146E3A510758156E8A
:1013E0001450025D1550035940E2060E255D02E2DD
:1013F000B7EC1BF0020E07D0020E12EC19F0010E32
:10140000DB6A0F01050E3D6F30D0020E20D0020EB8
:10141000255D02E2120E1BD03EB71FD0020E06D091
:10142000050E255D0EE3080E3D6F110EF36E030EE3
:101430001AD0050E255D11E2110E09D0050E255DAD
:101440000CE2100E04D0050E255D07E2110E12EC21
:1014500019F0DE52010EDD6E08D0140E12EC19F0F8
:10146000010EF36E020EF3CFDBFF030EDB5023E021
:10147000010EDB501CE0B7EC1BF062EC1AF0156EAD
:10148000166A176A15AE02D01668176866EC18F06F
:101490004DEC1DF008E2AEEC1DF015AE02D0166862
:1014A000176866EC18F02BEC1CF0E66A02D0010E0F
:1014B000E66E8EEC1BF0020EDB5002E08CEC0FF0BF
:1014C000DF2A5AD6CDEC1AF0C5EC18F030E2E3EC86
:1014D0001EF02DE0AAEC16F0120E65EC17F012ECDF
:1014E0001AF056EC1EF0E2ECA8F07EEC1BF0065C65
:1014F000146E17500758156EDC0ED8801454010E68
:1015000015540FE2D7EC16F002E2E16AE552E16E03
:101510001A500101FC6BFD6B040EDB06050E01E2A7
:10152000DB06040EDB2A050ECFE3DB2ACDD7060E41
:10153000E15C02E2E16AE552E16ECCEF16F0BEEC4E
:1015400016F0250EE12402E3E168E652E16EC5ECF7
:1015500016F0EAEC1AF0170EEECFDBFFD4EC17F022
:10156000180EEECFDBFF190EEECFDBFF1A0EEECF1B
:10157000DBFF1B0EEECFDBFF1C0EDB6A060EF36EED
:101580001D0EF3CFDBFFAEEC1AF01E0E08C0DBFF22
:101590001F0E09C0DBFF1E0EDBCFE6FF1F0EBEECE9
:1015A0001BF01E0EF3CFDBFF1F0EC5EC1BF0140F5C
:1015B00033EC1DF0200E14C0DBFF210E15C0DBFF45
:1015C000B5EC1AF081EC7AF0E552E552220EF3CF39
:1015D000DBFF230EF4CFDBFF200EDBCF14F0210E58
:1015E000DBCF15F0220EDB50141849E1230EDB503F
:1015F000151845E1000ECCEC1BF0140EAAEC1AF005
:10160000E8EC7BF085EC1EF0FAEC1CF04EEC0FF0F1
:10161000E552E552D9500C0FD2EC16F091EC19F0CE
:10162000146E156A140E145E000E155A240E14C0A2
:10163000DBFFDB50166E176AAEEC1AF01650085C32
:10164000146E17500958156E140E145E000E155ABC
:10165000F80E14C0DBFFF90E15C0DBFFB9EC17F074
:10166000FAEC1CF0CCDA85EC1EF0000908E0B5ECD1
:101670001AF0FAEC1CF0CBEC0FF085EC1EF08AECC3
:1016800078F0010E146E250EE15C02E2E16AE5528B
:10169000E16E1450CCEF16F0BEEC16F02A0EE124E9
:1016A00002E3E168E652E16E93EC00F0FD0EDBA090
:1016B00004D00F013F87FD0EDB900F013E9B3E9D46
:1016C0003E9F3F933F953F9176EC78F00009FCE018
:1016D000FD0EDB50060B05E0260EDB6A270EDB6AEB
:1016E000EFD00F010E512D1910E10F512E190DE100
:1016F000260EDB6A270EDB6A3FA7E2D014511511D4
:1017000001E1DED0FD0EDB80DBD02D510E5D2E51D0
:101710000F593CE20E512D5D146E2E510F55E9EC20
:1017200018F003E362EC1AF004D0E2EC17F036ECA8
:101730001AF0A8EC1CF002E2EDEC19F0BDEC1EF082
:1017400002E23EEC1AF03FA713D0D6EC18F0280EB8
:10175000DB50141803E1290EDB50151809E020ECCA
:101760001DF0EE1802E1020EED1802E0FD0EDB8026
:10177000260EDBCFE6FF270E90EC18F002E2E16ABE
:10178000E552E16E1450C2EC1DF09AD00E51295D65
:10179000146E2A510F5596EC1BF0240EDB502D25AC
:1017A000166E250EDB502E21176E2751165C146E17
:1017B00028511758E9EC18F003E362EC1AF004D052
:1017C000E2EC17F036EC1AF0A8EC1CF002E2EDECBB
:1017D00019F0BDEC1EF002E23EEC1AF03FA713D068
:1017E000D6EC18F0280EDB50141803E1290EDB505C
:1017F000151809E020EC1DF0EE1802E1020EED18BC
:1018000002E0FD0EDB80240EDBCF14F0250EDBCFD3
:1018100015F0260EDBCF16F0270E69EC17F004E268
:10182000B2EC19F0D3EC1BF05FEC1EF090EC18F06A
:1018300002E2E16AE552E16E1450260EDBCF16F0AB
:10184000270EDBCF17F0240EF8EC1EF0250EDB5030
:10185000175896EC1BF0D950240F69EC1CF027E0C8
:101860005FEC1EF0DBCFE6FF42CFE6FF27CFE6FFBF
:1018700028CFE6FFE66A0F010E51295D146E2A514A
:101880000F55156E166A176A070E14260A0E1522D2
:10189000000E1622172264EC1EF0F3EC15F0186E01
:1018A000080EE15C02E2E16AE552E16E1850C2EC1A
:1018B0001DF029510E5D2A510F5902E3F6EC1DF07F
:1018C000D950260F69EC1CF004E1FD0EDB50030B30
:1018D00016E0D950260F69EC1CF002E0FD0EDB8605
:1018E000FC0EDBA008D00F01256BF20E026F9E0EDE
:1018F000036F046B056B1CEC19F03E8930D0FC0EB5
:10190000DBA21ED03E0EE96E0F0EEA6EEF50070B03
:10191000E82AE850070BF36EF46EF80EEF14F3109C
:10192000EF6EF4500F010607000E075B085B095BC2
:10193000010EF36E260EF3CFDBFF270EDB6A0FD00E
:101940000F013EA90CD0DBB008D0255106E02507D9
:10195000D89005330433033302331CEC19F0020E24
:1019600012CFDBFF030E13CFDBFF040E10CFDBFF24
:10197000050E11CFDBFF060E06CFDBFF070E07CFEC
:10198000DBFF080E08CFDBFF090E09CFDBFF0A0ED5
:101990000ACFDBFF0B0E0BCFDBFF0C0E0CCFDBFFF8
:1019A0000D0E0DCFDBFF0F0EDB9CDB9E0E0EDB90D2
:1019B000DB92DB94DB96FD0E63EC1BF0140EDB6A0E
:1019C000150EDB6AD6EC18F09EEC1BF0FD0EDBA2C8
:1019D00015D0DBB808D00A0EDB6A0B0EDB6A0C0EE2
:1019E000DB6A0D0EDB6A24A303D0A5EC1EF006D043
:1019F000062B000E0723082309232483FD0EDBA0FA
:101A00000BD024A103D0A5EC1EF006D0062B000EAF
:101A100007230823092324816FEC1BF003E39FECC9
:101A200018F002D0F4EC1AF0100E14C0DBFF110E07
:101A300015C0DBFFBAEC78F0A5EC1DF0400E145E8B
:101A4000DAEC1BF0CFEC19F00001800E151402E067
:101A5000DE6ADD6AB9EC19F002EC1BF008E28AECF0
:101A600017F0100EEECFDBFF110EEDCFDBFFD950DC
:101A7000020FD4EC19F012DAE552E552E7EC1EF051
:101A8000140EEE26000EED220E0EDB88DB9ADB8CA8
:101A9000DB9EFD0EDBA22DD0E7EC1EF0040EEE2641
:101AA000000EED22020EF36E160EF3CFDBFF040ED6
:101AB000F36E170EF3CFDBFF020EF36E180EF3CFAB
:101AC000DBFF140E30EC1CF0010E146ED9500E0F1B
:101AD000D2EC16F0FDEC1DF014240F0BF36EF46E37
:101AE000F346F346F346F3460F0EEF14F310EF6E92
:101AF000F4501A0E47CEDBFF1B0E48CEDBFF1C0E48
:101B000049CEDBFF1D0E4ACEDBFF1E0E18CFDBFFDA
:101B10001F0E19CFDBFF200E1ACFDBFF210E1BCFCC
:101B2000DBFF220EDB6A060EF36E230EF3CFDBFF24
:101B3000B2EC19F0D3EC1BF05FEC1EF0BEEC1BF026
:101B4000240EF3CFDBFF250EC5EC1BF01A0F33EC90
:101B50001DF0120E14C0DBFF130E15C0DBFFDF0EED
:101B6000E66E090EE66E45EC7AF03DEC1BF0060ED3
:101B7000E66ECAEC19F078EC9FF0146E050EE15C8D
:101B800002E2E16AE552E16E1450140EE66EE66A76
:101B9000D950020FD4EC19F0C0EC19F0FD0EDBA205
:101BA00009D0040EE66EE66AD950160FD4EC19F08F
:101BB000C0EC19F0F30EE66E090EE66E4FEC7AF00B
:101BC0003DEC1BF081EC7AF0E552E552EBEC1EF0B7
:101BD000030EE66E0A0EE66E45EC7AF0E552E5522B
:101BE000020EAAEC1AF0C0EC19F025EC7AF02A0EDD
:101BF000E15C02E2E16AE552E16ECCEF16F0FFEC47
:101C00001CF002E3E168E652E16E3EEC1CF0EE509F
:101C1000ED1001E1AAD0DE52FE0EDD6ED4EC17F01D
:101C2000020E65EC17F0EECF1AF0EFCF1BF0D4ECFC
:101C300017F01A50EE24186E1B50EE20196EC5ECEA
:101C400016F01850EE24166E1950EE20176E3EEC6A
:101C50001CF01650EE18146E1750EE18156E41EC6D
:101C600018F0DF6A31EC18F047E2C4EC19F00D0E01
:101C70000F013D5D3FE0040E3D5D0CE1A2EC1EF066
:101C80001450401937E11550411934E1010EDFCFEE
:101C9000DBFF30D040CF14F041CF15F0020EDB5007
:101CA000141828E1030EDB50151824E193EC00F022
:101CB000A2EC1EF00F01125114181CE1135115185B
:101CC00019E1C5EC16F012EC1AF01051161812E1D9
:101CD000115117180FE1D4EC17F0EE5018190AE162
:101CE000EE50191907E1EE501A1904E1EE501B19D4
:101CF00001E12DE0DF2AB6D7010EDB50FE0829E016
:101D0000010EDBCFE6FF5EEC00F0E55293EC00F055
:101D1000010EDB50FE081DE0020EDBCF40FF030E7C
:101D2000DBCF41FF67EC1DF002E2E16AE552E16EB4
:101D30001450C5EC16F0EECF10FFEDCF11FF3EECC6
:101D40001CF0EECF12FFEDCF13FF35EC1CF0010EAF
:101D50009BD0C5EC16F00D0E65EC17F0EF50020BA2
:101D600004E00101FC51FD1102E0000E8DD0CDEC2C
:101D70001AF0C5EC18F036E2E3EC1EF033E087EC25
:101D80001CF0E4EC18F03EEC1CF012EC1AF01650CB
:101D9000141822E1175015181FE192EC1DF0E4EC25
:101DA00018F0C5EC16F012EC1AF01650141814E1E5
:101DB0001750151811E1D4EC17F086EC1DF0EE5019
:101DC0000001141808E1EE50151805E1EE50161840
:101DD00002E1EE50171849E0040EDB2A050EC9E3B4
:101DE000DB2AC7D7DF6A31EC18F04DE2C4EC19F0FA
:101DF0000F013EA746D093EC00F0A2EC1EF0145069
:101E00000F0112193EE1155013193BE13AEC1CF099
:101E1000DBEC17F0AAEC16F034EC1BF056EC1AF0E1
:101E200002E2E16AE552E16E1650C5EC16F0E4EC10
:101E300018F092EC1DF014C0EEFF15C0EDFFC5ECDC
:101E400016F0040E65EC17F086EC1DF00C0E65EC38
:101E500017F014C0EEFF9BEC1EF0A2EC1EF087EC16
:101E60001CF014C0EEFF15C0EDFFE2ECA8F007C0B7
:101E700015F0AAEC16F0120E69EC1EF015C0EDFF7D
:101E800003D0DF2AB0D7000E146E060EE15C02E22A
:101E9000E16AE552E16E1450CCEF16F0BEEC16F09C
:101EA000C5EC16F077EC1EF0C5EC16F0D7EC1AF086
:101EB0003EEC1CF077EC1EF03EEC1CF0F0EC1EF05B
:101EC000040E4AEC1CF0040E69EC1EF09BEC1EF0B4
:101ED000C5EC16F0080E4AEC1CF0080E69EC1EF07A
:101EE0009BEC1EF0ECEC1CF077EC1EF0ECEC1CF024
:101EF000F0EC1EF0100E00EC1FF0100E65EC17F069
:101F0000F0EC1EF0120E00EC1FF0120E65EC17F054
:101F1000D7EC1AF0CCEF16F093EC00F012CF40FFA4
:101F200013CF41FFC8EC1AF027CF2FFF28CF30FF87
:101F300029CF31FF2ACF32FF21EC1CF00F013E5197
:101F4000080B02E0040E01D00D0E3D6F3E913E9352
:101F50003E953E993E9B3E9D3E9F3F913F933F95D0
:101F60003F973F89249124932497249935EC1CF0C2
:101F700001ECA8F0F3CF06FFF4CF07FF01ECA8F0C7
:101F8000F3CF08FFF4CF09FF0F0122692369010E87
:101F9000146F156B1200BEEC16F01A0EE12402E36A
:101FA000E168E652E16EC5EC16F00D0E65EC17F037
:101FB0000E0EEFCFDBFFC5EC16F0080E65EC17F048
:101FC0000F0EEECFDBFF100EEECFDBFF110EEECFCC
:101FD000DBFF120EEECFDBFFC5EC16F0040E65EC56
:101FE00017F0130EEECFDBFFEAEC1AF00F013E9173
:101FF0003E933E953EB904D0C9EC17F0E0EC1AF0E0
:102000003D51050A23E0010A10E0BCEC1AF0170E5E
:1020100008C0DBFF180E09C0DBFF0E0EDBA04AD0A4
:10202000170EDB2A180E46E344D00E0EDBB408EF81
:1020300015F0DBA805D020EC18F0E66A040EA1D25A
:10204000DBA208EF15F0F8EC18F029D00E0EDBB487
:102050000FEF15F0DBA810D004EC1EF001E01BD14F
:10206000EE50071901E017D1EE50081901E013D125
:10207000EE50091901E00FD10E0EDBA20FEF15F0A3
:10208000F8EC18F0C3EC1EF00E0EDBA808D0E7EC5D
:102090001CF00F01070E3D6F3E990FEF15F0010E7A
:1020A000E66E120E6DEC17F00F01060E3D6F0FEF8E
:1020B00015F0DB2A0E0EDBA205D0170EDB2A180E58
:1020C00001E3DB2A6FEC1BF003E39FEC18F002D076
:1020D000F4EC1AF00C0E14C0DBFF0D0E15C0DBFF84
:1020E000D950130FD2EC16F00A51EE5C146E0B515E
:1020F000EE58156E0C51EE58166E0D51EE58176EC7
:102100000BEC1EF0080E16C0DBFF090E17C0DBFF3C
:10211000060EDBCF08F0070E10EC1BF0190EDB6A81
:10212000D950170F69EC1CF06EE0D9500C0F69EC18
:102130001CF001E183D0C9EC1EF002E646EC1BF076
:1021400005E37DEC1EF096EC19F040E3170EDBCFB3
:1021500014F0180E03EC1AF065EC1CF04FEC1BF0B9
:102160001734000E171809E6D880000E1454000E1C
:102170001554000E1654000E17542BE20C0EDBCF34
:102180001CF00D0EDBCF1DF0170EDB501C5C186E23
:10219000180EDB501D58196E1A6A1B6A19AE02D050
:1021A0001A681B6865EC1CF0030EEBCFF3FF1B50A5
:1021B000F318E8AE02D0F33408D0EE50185CEE50BD
:1021C0001958EE501A58EE501B5803E3010E30EC2C
:1021D0001CF07DEC1EF0030EEB501718E8AE02D099
:1021E000173402D096EC19F029E2170EDBCF1AF063
:1021F000180E86EC1AF0E83421E218500008000EA0
:1022000019541CE218D012EC1EF0080EDBCF16F0A9
:10221000090EDBCF17F014501510161017100BE035
:10222000C9EC1EF002E646EC1BF008E37DEC1EF064
:1022300096EC19F003E2010E30EC1CF0190EDB50A5
:1022400005E10E0EDBB4EBD30BEF15F00E0EDB50F9
:10225000060B01E0DDD30E0EDBA8E1D33D510C0AE5
:1022600001E1A8D10B0A39E00F0A37E0010A35E095
:10227000020A33E0010A31E00C0A01E0AED104ECBD
:102280001EF008E1EE50071905E1EE50081902E1D1
:10229000EE50091920E0130E06CFDBFF140E07CF16
:1022A000DBFF150E08CFDBFF160E09CFDBFF20EC9E
:1022B00018F0010EE66E040E6DEC17F0130EDBCF76
:1022C00006FF140EDBCF07FF150EDBCF08FF160E3F
:1022D000DBCF09FFA4D3070E3D6F0E512D5D146EA9
:1022E0002E510F55156E83EC17F0040E69EC1BF0A0
:1022F00006E0A3EC17F0D950040F5EEC1CF0040EBE
:10230000DBCF14F0050E03EC1AF0060EE96E0F0E8B
:10231000EA6E4FEC1BF05AEC18F0CCEC1CF01850A5
:10232000EE5C146E1950EE58156E1A50EE58166E7B
:102330001B50EE58176E0001800E171402E0E66A7B
:102340006CD30F012F510E5D186E0F513055196E61
:102350001A6A1B6A19AE02D01A681B681850065D0B
:10236000146E19500759156E1A500859166E1B50E5
:102370000959176E5AEC18F04DEC1DF00CE2AEEC5A
:102380001DF08AEC17F01450EE5E1550EE5A165000
:10239000EE5A1750EE5ACCEC1CF0EE50185C146E4E
:1023A000EE501958156EEE501A58166EEE501B5816
:1023B000176E5AEC18F0DECF07F0DECF08F0DECF54
:1023C00009F0DDCF0AF0DD52DD520A34000E0A18A2
:1023D00009E6D880000E0754000E0854000E095478
:1023E000000E0A545BE2AEEC1DF08AEC17F0EE50E2
:1023F000145CEE501558EE501658EE5017584EE338
:10240000249724993F91040E2FCFDBFF050E30CF88
:10241000DBFF8AEC17F0EE502F27EE503023A6ECAE
:102420001BF00E5D15500F5909E34DEC1DF023E232
:102430000E512F5D146E30510F5518D0E2EC17F08D
:102440000E511624146E0F511720156E83EC17F0E1
:1024500043EC1CF02F51145C305115580CE2040E63
:10246000DB502F5D146E050EDB503059156E9EEC5F
:102470001BF02BEC1CF029512F5D2A51305906E33B
:10248000A3EC17F014502F5F1550305B29510E5DEF
:102490002A510F5928E3F6EC1DF025D00E512F19C3
:1024A00002E10F5130191FE024A71CD024A919D034
:1024B00062EC1AF0156E166A176A15AE02D016682D
:1024C000176866EC18F04DEC1DF008E2AEEC1DF05C
:1024D00015AE02D01668176866EC18F02BEC1CF0ED
:1024E0003F85248924872D512F1917E12E5130194A
:1024F00014E13FB702D03E9910D07AEC1CF00DE108
:102500000751EE180AE10851EE1807E10951EE18DB
:1025100004E103E13E993F9724911451151106E11E
:10252000ECEC1CF0EE50ED1001E03F83C3EC1EF02C
:10253000080E3D5D1CE17AEC1CF04FE10751EE18EE
:102540004CE10851EE1849E10951EE1846E145E128
:10255000C9EC17F0BA0E0F0135271A0E3623030EF9
:102560003723000E38233E89090E3D6F36D0090E01
:102570003D5D0AE10E0EDBB030D020EC18F0E66ACB
:10258000140E6DEC17F044D20A0E3D5D26E17AEC94
:102590001CF001E044D20751EE1801E040D208518E
:1025A000EE1801E03CD20951EE1801E038D201E00A
:1025B00036D22ED27AEC1CF001E031D20751EE185F
:1025C00001E02DD20851EE1801E029D20951EE1890
:1025D00001E025D201E023D21BD20E0EDBBA1FD2BE
:1025E0000B0E3D5D01E11BD20A0E3D5D01E117D2EC
:1025F0000C0E3D5D01E113D2D950FA0F78EC17F0C3
:1026000001E188D1DDEC18F0153402E2D2EC1AF0C9
:1026100001E2ACD0CAEC1DF0166E176A0A0EDB5050
:10262000F35C146E0B0EDB50175852EC1DF0FBECF4
:102630009FF0E552E552DDEC18F0D950FA0FC3ECEB
:1026400017F0ED22E1EC1BF00C0EDBCF16F00D0EB7
:1026500069EC17F00CE20C0EDBCF08F00D0EDBCFAF
:1026600009F0FA0E08C0DBFFFB0E09C0DBFFE1EC4E
:102670001BF014500F01E8EC1BF0FA0EDB50312573
:10268000146EFB0EDB503221156E04EC1DF021E2BE
:102690003151DCEC1AF03255DFEC1EF0CBEC18F0C7
:1026A00066EC19F002E2E16AE552E16E1450AAEC20
:1026B00017F002E2E16AE552E16E1850CFEC1EF02D
:1026C000156E0F0129511424316F2A511520326FD4
:1026D00010D0DBEC17F066EC19F002E2E16AE5528B
:1026E000E16E1450BCEC1AF008500F01312709506C
:1026F0003223221D01E1231D01E10CD1BCEC1AF0B3
:102700000850225F0950235B16512225146E175181
:102710002321156E83EC17F0040EDBCF14F069EC67
:102720001BF021E1233504E222510008000E23555D
:1027300001E2F0D0A6EC1BF0E8EC1BF0040EDBCFBE
:1027400008F0050EDBCF09F008503127095032237D
:1027500031512B5D32512C5906E275EC1CF01450AE
:10276000315F1550325B22692369D4D0DDEC18F05B
:10277000153401E3CFD0D2EC1AF001E3CBD00A0E2E
:10278000DBCF16F00B0EDBCF17F058EC1BF00C0E66
:10279000DBCF18F00D0E9FEC1AF00EE20C0EDBCF23
:1027A00016F00D0EDBCF17F05CEC1BF0FA0E14C028
:1027B000DBFFFB0E15C0DBFFCAEC1DF0CCEC1BF001
:1027C0000A0EDB500F01EFEC1BF058EC1BF004EC91
:1027D0001DF03EE231512B5D166E2C513255176EB5
:1027E00012EC1CF05CEC1BF08EDB040E69EC1BF0B1
:1027F00010E1CBEC18F012EC18F002E2E16AE552BD
:10280000E16E1650A7DB02E2E16AE552E16E185074
:1028100026D0D1DB23EC1DF00A0EDB50EFEC1BF0D1
:1028200029512B5D186E2C512A55196E010E182650
:10283000000E19221AEC1DF052EC1DF0D4D91A6EBC
:10284000080EE15C02E2E16AE552E16E1A5007D03F
:10285000B2DBE8DB02E2E16AE552E16E16500F01FD
:10286000221D07E1231D05E1FDEC1BF0F6EC1BF03A
:1028700051D0DDEC18F02251145C2351155825E29B
:10288000B2DB13E3FA0EDBCF1CF0FB0EDBCF1DF047
:102890000A0EDB501C241A6E0B0EDB501D201B6E23
:1028A00022511A5C23511B5803E2F6EC1BF00AD0AC
:1028B00004EC1CF00A0EDB50145C166F0B0EDB50A0
:1028C0001558176FFDEC1BF025D08DDB23E2DDECF6
:1028D00018F022511625166E23511721176E145029
:1028E000165C1550175816E3FA0EDBCF1AF0FB0EE4
:1028F00086EC1AF02251185C166E23511958176E87
:102900001651165C146E17511758156E1450162771
:1029100015501723D950170F69EC1CF017E0070E5C
:102920003D5D02E017EC1CF03EAF05D0E7EC1CF07B
:1029300093EC00F00BD03E8F3EBD08D03E8D0BECEB
:102940001CF00F0E0F013B27000E3C230E0EDBA0E8
:1029500066D00ACF14F00BCF15F00CCF16F00DCFC8
:1029600017F0142A000E152216221722170EDBCF9D
:1029700018F0180EDBCF19F01A6A1B6AD950130F22
:1029800011DAEE501826EE501922EE501A22EE50AF
:102990001B221450181843E11550191840E1165025
:1029A0001A183DE117501B183AE139E10F010A2BC3
:1029B000000E0B230C230D233D51090A26E0010ACA
:1029C00014E00F0A08E0010A26E10C0E3D6F010E2B
:1029D000E66E110E23D00B0E3D6F0BEC1CF01F0E9C
:1029E0000F013B27000E3C2316D07AEC1CF00AE1C5
:1029F0000751EE1807E10851EE1804E10951EE18ED
:102A000001E103E00A0E3D6F06D0E66A100E65DABA
:102A10008CEC0FF004D0010EE66E100E5EDA1A0E8A
:102A2000E15C02E2E16AE552E16EB6D1FFEC1CF036
:102A300002E3E168E652E16E04DAAAEC1DF007E178
:102A4000010EF36EFB0EF3CFDBFFFC0EDB6A0F0112
:102A50002751DCEC1AF02855156E1406DAEC1BF041
:102A60006DEC19F0DECF18F0DDCF19F06EEC1EF032
:102A70006BE393EC00F0F80EDB50030B03E1F80E70
:102A8000DB80DB82A3EC1AF0040E08C0DBFF050E2E
:102A900009C0DBFF6DEC19F09CEC1DF0F80EDBA219
:102AA0000ED0DBA006D0CFEC19F0D890153214323E
:102AB00002D0CFEC19F0D950040F5EEC1CF0040EDC
:102AC000DB500F012725146E050EDB50282115DA87
:102AD00014C0DEFF15C0DDFF020E31CFDBFF030E99
:102AE00032CFDBFF221D01E1231D10E004EC1CF0BE
:102AF000D950020F5EEC1CF0CFD904EC1DF006E2B9
:102B000075EC1CF0D950020FFCEC1EF0C5D9145026
:102B1000335D155034590BE2CFEC19F01450335D8E
:102B2000155034591BE2F80EDBB40ED00FD019EC5F
:102B30001EF00CE2CFEC19F01450295D15502A5903
:102B40000DE2F80EDBA402D0000E44D0DECF33FF3E
:102B5000DDCF34FFDECF31FFDDCF32FF19EC1EF0C9
:102B600027E2F80EDB50040B23E0020EDBCF08F067
:102B7000030EDBCF09F02951085C146E2A51095865
:102B800073EC1AF00FDB14EC1DF002E2E16AE5527F
:102B9000E16E16500F016FEC1BF00AE2DE50295D6A
:102BA000146EDD502A59156E1450315F1550325B8A
:102BB000DECF29FFDDCF2AFF35EC1CF027CF2FFF1A
:102BC00028CF30FFC8EC1AF0070E3D5D02E1E7ECBC
:102BD0001CF0010E146E060EE15C02E2E16AE552A1
:102BE000E16E1450D9D0CAD8F80EDB501BE0010AB0
:102BF00040E1FB0EDB500CE0010A3BE12EDAB9D9D3
:102C00005CEC1AF002E2E16AE552E16E145031D058
:102C1000D950FC0FF3DB02E120EC1EF01EDA28ECA9
:102C20007CF014D0FB0EDB5014E0010A22E1D950F5
:102C3000F90FE4DB06E1E0EC1CF04FEC7AF0E55232
:102C4000E55227EC1EF095D9E8EC7BF085EC1EF000
:102C500010D003DA8ED939EC7BF0146E060EE15CED
:102C600002E2E16AE552E16E1450E0EC7BF000090B
:102C7000FCE092D083D8120EE12402E3E168E65230
:102C8000E16EFB0EDB5014E0010A5DE1F60EDBCFD6
:102C9000E6FFF70E4AEC1AF06CD906EC96F0146ECB
:102CA000070EE15C02E2E16AE552E16E14504BD09E
:102CB000D950FC0FA3DB02E120EC1EF0100EF36EE6
:102CC000DB6E110EDB6AD950F60F12D93CE051DBF6
:102CD000F60EDBCF16F0F70EFCD80CE2F60EDBCFCB
:102CE00008F0F70EDBCF09F0100E08C0DBFF110E65
:102CF00009C0DBFF100EDBCFE6FF110ECBDBFAECD9
:102D00001CF006EC96F0146E070EE15C02E2E16A3C
:102D1000E552E16E1450100EDBCFE6FF110EDBCF53
:102D2000E6FFFAEC1CF02CDB24DB166AD950F80F16
:102D30002AD9EE221650EE221CDBD950F60F94EC65
:102D40001CF01CD9C0D7120EE15C02E2E16AE55228
:102D5000E16E22D0040EDBCFE9FF050EDBCFEAFFE8
:102D6000140EEA02F3CFEAFFE902F3CFE9FFF450D1
:102D7000EA26C40EE926010EEA221200FAEC1CF043
:102D8000E1CFD9FFE2CFDAFF1200FC0EDBCFE9FF83
:102D9000FD0EDBCFEAFF1200E552E5CFDAFFE7CF09
:102DA000D9FF1200E96E000EDA20EA6E120043EC41
:102DB0001CF0020ED8801456000E1556140E150283
:102DC000F3CF15F01402F3CF14F0F4501526F3CF1F
:102DD000E6FF15C0E6FF010EE66EE76E2EEC1EF074
:102DE000E7501626000E1722140E1702F3CF17F025
:102DF0001602F3CF16F0F4501726C40E1626010E55
:102E0000172256EC1EF0010EE66E040EDBCF18F012
:102E1000050EDBCF19F0140E1902F3CF19F01802CA
:102E2000F3CF18F0F4501926C40E1826010E1922FB
:102E300018C0E6FF19C0E6FFD6DE1A6E080EE15C88
:102E4000120057EC1DF05EEC00F0E5521200DBECD6
:102E50001EF0EFCFF6FFEE2AEFCFF7FF000EEE22C7
:102E6000EFCFF8FFEE2208000E0EF5CFDBFF1200C9
:102E70003E8BE2ECA8F006C014F007C015F0166A0D
:102E8000176A060E1426000E15221622172214C0E9
:102E900039FF15C03AFF1200020ED5EF1EF0CA0E20
:102EA000146E570E156E010E166EDFCF17F0186AEE
:102EB000196A060E0C6E0D6A0E6A17C007F018C06C
:102EC00008F019C009F0DAEF84F0E926000EEA22D2
:102ED0001200DBCF17F097EF1DF0E66E4CEC0BF015
:102EE000E552E5521200E66E6EEC1CF081EF1CF02C
:102EF00094EC1CF0EE50ED101200156E010E14262D
:102F0000000E15221200040E14C0DBFF050E15C0C2
:102F1000DBFF1200D9CFE9FFDACFEAFF120014502D
:102F20000424F36E15500520F46E16500620F86E3A
:102F3000F4CFF7FFF3CFF6FF120057EC1DF0BFEC14
:102F400002F0E55212002751295D146E2A512855CE
:102F5000156E1200CFEC1EF052EC1DF023EC1DF0AC
:102F600029CFE6FF2ACFE6FF3EDE186E080EE15CB1
:102F70001200FC0EDBCFE6FF57EF1DF01450EE5EA3
:102F80001550ED5A120094EC1CF01450EE2615501A
:102F90001200D8ECA8F006C035FF07C036FF08C005
:102FA00037FF09C038FF1200FA0EDBCFE9FFFB0E36
:102FB000DBCFEAFF1200FA0EDBCFE6FFFB0EDBCF22
:102FC000E6FF12002751295D166E2A512855176E0B
:102FD000120057EC1DF07CEC04F0E5521200E552B3
:102FE000E552A5EF1DF0FA0EDBCF16F0FB0EDBCF9E
:102FF00017F00A0EACEC1EF00B0EDB501720156E0E
:1030000022511625186E23511721196E6EEF1EF0EE
:10301000FA0EDBCFE6FFFB0EDBCFE6FFFC0EDBCFCD
:10302000E6FF120023EC1DF00A0EDB503125146E72
:103030000B0EDB503221000152EC1DF014EF1DF09D
:103040000F0EDBCF06FF100EDBCF07FF110EDBCF1D
:1030500008FF120EDBCF09FF120027EC1EF0E0EF95
:103060001CF0DF50146E156A060E145C000E155825
:103070001200FB0EDBCFE9FFDB2AFC0EDBCFEAFF01
:103080001200020E14C0DBFF030E15C0DBFF12009E
:10309000EBEC1EF03DEC1DF0DE50165C146EDD50C6
:1030A000175844EC1DF0040EE15C120035EC1EF0E4
:1030B00081EF1CF014C0DFFF010E15C0DBFF020E14
:1030C00016C0DBFF030E17C0DBFF12001450065FB3
:1030D0001550075B1650085B1750095B1200DBCFD9
:1030E000F4FFF350F45C1200DB503421156E0BEC4E
:1030F0001EF012EC1EF004EF1DF0D8ECA8F00F014A
:103100003551065C146E36510758156E3751085804
:10311000166E38510958176E0001800E17141200F0
:10312000DBCFE6FF42CFE6FF0ECFE6FF0FCFE6FF95
:10313000E66A070EE66E0A0EE66E81EF1CF0295174
:103140002B5D166E2C512A55176E3351315D186E5A
:1031500032513455196E1AEC1DF0156E1200E00E46
:10316000146E0D0EDBCFE7FF1450E7260D0EE7CFF0
:10317000DBFF1200E00E146E0E0EDBCFE7FF1450E3
:10318000E7260E0EE7CFDBFF12007DDB030E145C9B
:10319000000E15581200040EDBCFE6FF050EDBCF44
:1031A000E6FF120042CFE6FF51EF1EF0260EDBCF06
:1031B00014F0270EDBCF15F012000A0EDBCF14F04F
:1031C0000B0EDBCF15F01200EECF14F0EFCF15F0A1
:1031D0001200156E260E14C0DBFF270E15C0DBFF94
:1031E000280E14CFDBFF290E15CFDBFF4DEF1DF0AE
:1031F000130EDBCF0AFF140EDBCF0BFF150EDBCF58
:103200000CFF160EDBCF0DFF0A2B000E0B230C2339
:103210000D2312001424E96E000E1520EA6EEF5003
:10322000F36E1200F36E030EF3CFDBFF1200176E86
:1032300079EC1DF0EFEF1DF0D8ECA8F006500F016F
:103240000225356F07500321366F08500421376F70
:1032500009500521386F12002EEC1EF0DE501624A6
:10326000146EDD50172014C0F3FFF46E1200F3CF7C
:10327000DBFFDBCF14F0040EDBCF15F0050ED1EF32
:103280001DF03CEC1EF0F90E08C0DBFFFA0E09C081
:10329000DBFF0F0EDB501200060EDBCF18F0070E1F
:1032A000DBCF19F0080EDB50185C166E090EDB50F0
:1032B0001958176E12003CEC1EF0F80E08C0DBFF28
:1032C000F90E09C0DBFF100EDB501200BCDB31CF62
:1032D000E6FF32CFE6FF81EF1CF087DBDBCF17F094
:1032E000FB0EACEC1EF0FC0EF4EF1EF0DBCF09F091
:1032F000060E08C0DBFF070E09C0DBFF1200D95025
:10330000100F146E000EDA20156E0C0EDB5012003A
:10331000D950110F146E000EDA20156E0D0EDB5011
:103320001200FDEC1DF0040DF35012001450EE5C81
:103330001550EE581650EE581750EE581200B7DBE5
:10334000CDEC02F0E5521200F90EDBCF14F0FA0ECC
:10335000DBCF15F01200DBCF17F01650145C1750BE
:1033600015581200260EDBCF08F0270EDBCF09F030
:103370001200100EDBCF14F0110EDBCF15F012008F
:1033800028EC7CF085EF1EF0DFCFE6FF5EEC00F06E
:10339000E5521200180EE66E0F0EE66E1200DECF3A
:1033A00014F0DDCF15F01200E66E000EDA20E66EA6
:1033B0001200EECFE6FFEFCFE6FF12001C0DC5DBDB
:1033C000000E1426030E152264EF1EF0DBCF14F05E
:1033D000020EDBCF15F0030EE4D3280EDBCF08F08E
:1033E000290EDBCF09F0260E08C0DBFF270E09C02F
:1033F000DBFF1200D8901732163299D395DAEE52CD
:10340000EF50800B1200DBCF15F0166A176A12001E
:10341000DBCFDEFFDBCFDDFF1200DB50146E156A61
:10342000D9501200EECF16F0EFCF17F01200E66E73
:103430005F511C0DF3CFE9FFF4CFEAFF000EE92640
:10344000030EEA22120035EC1EF014DC146E080E96
:10345000E15C1200DB500F011524E96E000E16200E
:10346000EA6EEFCF14F0610E145C12000E512F5D66
:10347000186E30510F55196E1AEF1DF0180EF36EBD
:10348000260EF3CFDBFF020EF36E270EF3CFDBFF2A
:103490003F851200DBCFE6FFF80EDBCFE6FFF90E2B
:1034A000DBCFE6FFFA0EDBCFE6FF1200DBEC95F098
:1034B000166E060EE15C1200DBEC95F0146E060E43
:1034C000E15C12002F510E5D146E0F513055120049
:1034D000DE502D25146EDD502E21156E2951145C01
:1034E0002A5115581200DEDA42CFE6FF29CFE6FF57
:1034F0002ACFE6FF1200E2ECA8F00F0106503B5D78
:10350000146E07503C59156EE8341200DBCF1BF0E7
:103510000A0EDB501A24186E0B0EDB501B20196E9E
:103520001200020EF3CFDBFF030EF4CFDBFF12001D
:1035300042CFE6FF33CFE6FF34CFE6FF1200DBCF0A
:1035400019F06EEF1EF0F90EDBCF08F0FA0EDBCFAC
:1035500009F01200E66EE66AFAEF1CF0F80EDBCF17
:1035600008F0F90EDBCF09F01200F80EDBCFE6FF12
:10357000F90EDBCFE6FF1200FA0EDBCF08F0FB0EF0
:10358000DBCF09F0120014C0F3FF15C0F4FF1200E6
:1035900027CF2DFF28CF2EFF1200040EDB6A050E69
:1035A000DB6A120014500008000E15541200F3CF0D
:1035B000EEFF15C0EDFF12002B5D146E2C511200B2
:1035C000740E0F013527350E3623060E3723000EF5
:1035D00038231200140EEECFDBFF150EEECFDBFF0B
:1035E000160EEECFDBFF12003151335D146E3451F5
:1035F0003255156E1406000E155A1200E16E145065
:1036000043EF1CF0DECF16F0DDCF17F090D2DBCF0A
:1036100009F0020E08C0DBFF030E09C0DBFF120039
:10362000DBCF09F00A0E08C0DBFF0B0E09C0DBFF81
:10363000120029CFDEFF2ACFDDFF040EDB68050E66
:10364000DB681200DB501724E96E000E1820EA6ECA
:10365000EF507A0812000D0EEFCFDBFF010EF36E74
:103660000F0EF3CFDBFF1200E9CF14F0EACF15F015
:10367000E9CFE6FFEACFE6FF1200E552E552260E5B
:10368000DBCFE6FF270EDBCFE6FF1200000EEE5C7D
:10369000000EEE58000EEE58000EEE581200EE50DE
:1036A0001426EE501522EE501622EE50172212006C
:1036B000FA0E52DBFB0E98D30A0E9ADB0B0EDB5090
:1036C0001758156E1200DB50E76E0F0EE7CFDBFFC9
:1036D0001200050EDBCF15F0800E151412003351C9
:1036E000315D345132591200DBCF15F014501510F2
:1036F0001200145E000E155A64EF1EF0E552E7CF7B
:1037000017F0E552E7CF16F0165012001424E96EB8
:10371000000E1520EA6E1650EF261200030EDBCFC6
:10372000E6FF4CEC0BF0E552E5521200156E240E4C
:1037300014C0DBFF250E15C0DBFF12001450062756
:1037400015500723000E0823092312009CD814509B
:103750001200D950FC0FE66EFF0EDA20E66E120062
:10376000080E08C0DBFF090E09C0DBFF1200252B85
:10377000D89002370337043705371200DBCFE6FF56
:1037800058EC69F0E552E5521200F4CFDBFF0C0E65
:10379000E66EE66AD9501200E66EE66AFBEC9FF030
:1037A000E552E5521200240E08C0DBFF250E09C0C9
:1037B000DBFF1200000E155A14C0DEFF15C0DDFF3E
:1037C0001200FA0EDBCF14F0FB0EDBCF15F0120067
:1037D0000A2715500B23000E0C230D231200312550
:1037E000166E0B0EDB503221176E1200FA0EDBCF75
:1037F00016FFFB0EDBCF17FF12000A0EDBCF22FFF6
:103800000B0EDBCF23FF120022511625146E23511D
:103810001721156E1200E2ECA8F006C03BFF07C0AE
:103820003CFF1200010E1626000E1722120031CFA7
:1038300033FF32CF34FF1200E652E652E652E65230
:10384000120029CF33FF2ACF34FF1200DB500F01C3
:103850003325146E12002FCF0EFF30CF0FFF120052
:10386000F36E190EF3CFDBFF120027CF0EFF28CF28
:103870000FFF12000A0EE66EE66A1200C5EC16F0A3
:10388000020E65EF17F0040EDBCF14F0050EDBCF50
:1038900015F0120065EC17F0EECFE6FFEECFE6FF75
:1038A00088DD77EC69F031DA06C014F007C015F056
:1038B00008C016F009C017F0C5EF16F0D2EC16F0EC
:1038C0001450EE261550ED221200D950060FD2EFFB
:1038D00016F0D2EC16F0EE50ED101200FB0EDBCF1E
:1038E000E6FFFC0EDBCFE6FF1200295165DE2A550C
:1038F0007DEF17F0D9500F0FD2EC16F00651EE18ED
:103900001200F3EC15F0146E080EE15C1200AAEC44
:1039100016F0100E65EF17F0DBCF17F0040E68DA23
:10392000050EDB5017581200E96EFF0EDA20EA6E22
:103930001200D9500A0FD2EC16F0FA0EEECFDBFFD0
:10394000FB0EEECFDBFFFC0EEECFDBFF27EF17F019
:10395000156ED950280F50DA29DC280EDBCF16F06F
:10396000290E69EF17F0060E53DDDB502B5D146E48
:10397000070EDB502C590001DFEF1EF00A0EDBCFE3
:1039800008F00B0EDBCF09F0FB0E08C0DBFFFC0ECE
:1039900009C0DBFF39EF18F00F0EDBCF18F0100E67
:1039A000DBCF19F0110EDBCF1AF0120EDBCF1BF0BC
:1039B0008AEF17F010DA8AEC17F0EE50ED101200D3
:1039C000F90EDBCFE6FFFA0EDBCFE6FF1200010EA9
:1039D000E66E100E6DEF17F0C5EC16F00E0E65EFEB
:1039E00017F0BEEC16F021EF17F0F90EDBCF16F052
:1039F000FA0E1200D9CFE6FFDACFE6FF1200BEECD6
:103A000016F0060EE124120014502B5D15502C59AF
:103A10001200E16E14508AEC17F0EE500F012D27C2
:103A2000EE502E234CEF17F0F3EC15F0166E080E47
:103A3000E15C12001850165C146E195017581200F1
:103A4000C6D9180E1200E66AE668E66842CFE6FFBD
:103A500012002D51295D146E2A512E55156E83ECDE
:103A600017F0CBEF18F0A0DC9EEC69F0E552E552C0
:103A7000EFEC17F0141E151E1200020EDBCF16F02D
:103A8000030EDBCF17F01200156E14C0F3FFF46EB7
:103A90001200F36E0D0E6FEF18F02F510E5D3051C6
:103AA0000F591200156E14C0E6FFE66E1200FD0EEF
:103AB000DBCFE6FF120050D9000E17207DEC17F087
:103AC000C3EF1AF0AADC020F97D94CEF17F0D2DE41
:103AD000DBEC17F05FDC5CEF1AF0010EE66E110E06
:103AE0006DEC17F00F01145115111200020E90DC4D
:103AF0005CD1F70E31D9F80E77D1DBCFE6FFE66A5D
:103B0000D2EC18F0010EE66ED9501200EECF14F090
:103B1000EECF15F087DCAAEF16F0610EF36E0E0EF5
:103B20006FEF18F0AAEC16F00A0E65EF17F01450BC
:103B3000165C1550175812008AEC17F0BEEF17F0FC
:103B4000F80EDBCF16F0F90E1200F3CF14F0F4CF1D
:103B500015F01200D950FB0F78EF17F0A3EC17F017
:103B6000166A176A1200DB50F458156E41EC18F013
:103B70004CEF17F027EC17F0010EF36E100EF3CF99
:103B8000DBFF1200B2EC19F008500F010E270950AC
:103B90000F231200C5EC16F00C0E65EC17F091EF38
:103BA00019F0DBCF16F01450155C000E16581200F9
:103BB00005C018F006C019F08FEF17F04CEC17F0A5
:103BC000E2EC17F0FAEF19F0BEEC16F035DE21EF5B
:103BD00017F00E0EDB50F36E0C0E6FEF18F0145052
:103BE0001219406F15501319416F1200A3EC17F012
:103BF00014500E5F15500F5B1200EF50F00BE842AF
:103C0000E842E842E8421200D9500F0FD2EC16F019
:103C1000EE5006191200060E14C0DBFF070E15C089
:103C2000DBFF1200060EDBCF14F0070EDBCF15F022
:103C300012004CEC17F03351145C3451155812003B
:103C4000B9EC17F045EC7AF0E552E5521200F60EA9
:103C5000DBCFE6FFF70EDBCFE6FF1200040EDBCF73
:103C600016F0050EDBCF17F0120042CFE6FF2DCF86
:103C7000E6FF2ECFE6FF1200080EDBCF08F0090E9C
:103C8000DBCF09F0120021EC17F09FEF19F08AEC5E
:103C900017F0010EEE1812009DEC17F00F013F8196
:103CA0001200DECFE6FFDDCFE6FF120016C0E6FF12
:103CB00017C0E6FF120021EC17F0E9EF17F0240E11
:103CC000DBCFE6FF250E120014C0E6FF15C0E6FFAD
:103CD000120065EC17F006C0EEFF12001450185CDD
:103CE000155019581200BEEC16F0E6521200D9EC2D
:103CF00019F058EC69F0EFEF17F00C0EDBCF14F071
:103D00000D0E03EC1AF065EF1CF0E552E552E5529A
:103D1000E5521200E16E41DCB6DF91EC1AF0D950A9
:103D2000020F69EF1CF00DEC1AF0040F65D8D950A2
:103D3000040F69EF1CF015C0EEFF16C0EEFF17C0B0
:103D4000EEFF12009BDDE4EF18F0BFDDEE06000E83
:103D5000EE5AEE5AEE5A1200DB501624146E120080
:103D6000010EE66EBBDD56EF18F08DDDE5DEC8EF27
:103D70001AF0BBDDAADDBEEF17F062DED880EE548C
:103D8000020EED54120028DEEECF14FFEDCF15FF2A
:103D900012009BDDD890030EEB50000A1200FA0EC1
:103DA000DBCF16F0FB0E8CEF1CF0DBCF14F0030E14
:103DB000DBCF15F01200D950FA0F94EF1CF07DEC18
:103DC00017F083EF17F0A3DDEE50ED101200D9507D
:103DD000260FD2EF16F0F3CFDEFFF4CFDDFF120097
:103DE000D7EC1AF0C5EF16F0DB501720156E120055
:103DF000DB50165C146E1200D2EC16F0BEEF17F01A
:0A3E000065EC17F074DFC5EF16F053
:063E0A0098EC2DF0FA0E09
:103E1000DBCF07F0FB0EDBCF08F0FC0EDBCF09F0A9
:103E2000FD0EDBCF0AF0440E071805E1085003E150
:103E3000095001E10A5001E1A0D3430E071805E142
:103E4000085003E1095001E10A5001E193D3420E09
:103E5000071805E1085003E1095001E10A5001E1AA
:103E600086D3410E071805E1085003E1095001E12E
:103E70000A5001E175D3400E071805E1085003E12F
:103E8000095001E10A5001E166D33F0E071805E130
:103E9000085003E1095001E10A5001E156D33E0EFA
:103EA000071805E1085003E1095001E10A5001E15A
:103EB0004AD33D0E071805E1085003E1095001E11E
:103EC0000A5001E13AD33C0E071805E1085003E11E
:103ED000095001E10A5001E12ED33B0E071805E11C
:103EE000085003E1095001E10A5001E11ED33A0EE6
:103EF000071805E1085003E1095001E10A5001E10A
:103F000012D3390E071805E1085003E1095001E109
:103F10000A5001E102D3380E071805E1085003E109
:103F2000095001E10A5001E1F6D2370E071805E108
:103F3000085003E1095001E10A5001E1E6D2360ED2
:103F4000071805E1085003E1095001E10A5001E1B9
:103F5000DAD2350E071805E1085003E1095001E1F6
:103F60000A5001E1CAD2340E071805E1085003E1F6
:103F7000095001E10A5001E1BED2330E071805E1F4
:103F8000085003E1095001E10A5001E1AED2320EBE
:103F9000071805E1085003E1095001E10A5001E169
:103FA000A2D2310E071805E1085003E1095001E1E2
:103FB0000A5001E192D2300E071805E1085003E1E2
:103FC000095001E10A5001E186D22F0E071805E1E0
:103FD000085003E1095001E10A5001E179D22E0EA7
:103FE000071805E1085003E1095001E10A5001E119
:103FF00069D22D0E071805E1085003E1095001E1CF
:104000000A5001E15DD22C0E071805E1085003E1CA
:10401000095001E10A5001E151D22B0E071805E1C8
:10402000085003E1095001E10A5001E141D22A0E92
:10403000071805E1085003E1095001E10A5001E1C8
:1040400035D2290E071805E1085003E1095001E1B6
:104050000A5001E129D2280E071805E1085003E1B2
:10406000095001E10A5001E11CD2270E071805E1B1
:10407000085003E1095001E10A5001E10FD2260E78
:10408000071805E1085003E1095001E10A5001E178
:1040900002D2250E071805E1085003E1095001E19D
:1040A0000A5001E1F5D1240E071805E1085003E19B
:1040B000095001E10A5001E1E8D1230E071805E19A
:1040C000085003E1095001E10A5001E1DBD1220E61
:1040D000071805E1085003E1095001E10A5001E128
:1040E000CED1210E071805E1085003E1095001E186
:1040F0000A5001E1C1D1200E071805E1085003E183
:10410000095001E10A5001E1B4D11F0E071805E181
:10411000085003E1095001E10A5001E1A7D11E0E48
:10412000071805E1085003E1095001E10A5001E1D7
:104130009AD11D0E071805E1085003E1095001E16D
:104140000A5001E18DD11C0E071805E1085003E16A
:10415000095001E10A5001E180D11B0E071805E169
:10416000085003E1095001E10A5001E173D11A0E30
:10417000071805E1085003E1095001E10A5001E187
:1041800066D1190E071805E1085003E1095001E155
:104190000A5001E159D1180E071805E1085003E152
:1041A000095001E10A5001E14CD1170E071805E151
:1041B000085003E1095001E10A5001E13FD1160E18
:1041C000071805E1085003E1095001E10A5001E137
:1041D00032D1150E071805E1085003E1095001E13D
:1041E0000A5001E125D1140E071805E1085003E13A
:1041F000095001E10A5001E118D1130E071805E139
:10420000085003E1095001E10A5001E10BD1120EFF
:10421000071805E1085003E1095001E10A5001E1E6
:10422000FED0110E071805E1085003E1095001E125
:104230000A5001E1F1D0100E071805E1085003E122
:10424000095001E10A5001E1E4D00F0E071805E121
:10425000085003E1095001E10A5001E1D7D00E0EE8
:10426000071805E1085003E1095001E10A5001E196
:10427000CAD00D0E071805E1085003E1095001E10D
:104280000A5001E1BDD00C0E071805E1085003E10A
:10429000095001E10A5001E1B0D00B0E071805E109
:1042A000085003E1095001E10A5001E1A3D00A0ED0
:1042B000071805E1085003E1095001E10A5001E146
:1042C00096D0090E071805E1085003E1095001E1F5
:1042D0000A5001E189D0080E071805E1085003E1F2
:1042E000095001E10A5001E17CD0070E071805E1F1
:1042F000085003E1095001E10A5070E0060E07186A
:1043000005E1085003E1095001E10A5064E0050E9F
:10431000071805E1085003E1095001E10A5058E08F
:10432000040E071805E1085003E1095001E10A50A5
:104330004CE0030E071805E1085003E1095001E1C4
:104340000A5040E0020E071805E1085003E1095049
:1043500001E10A5034E0010E071805E1085003E1BD
:10436000095001E10A5021E0075005E1085003E13E
:10437000095001E10A5013E0040EE66EE66A370EBA
:10438000E66EEB0EE66E000EE66EE0EC2FF099ECBA
:1043900003F0146E060EE15C01E3F4D0F1D0470E99
:1043A000E66EEB0EE66E000E05D03C0EE66EEB0EF2
:1043B000E66E000EE66EE1EC2CF0E552D5D012EC84
:1043C00057F0E2D016EC57F0DFD020EC57F0DCD0FD
:1043D0002AEC57F0D9D09EEC5AF0D6D0BEEC5AF069
:1043E000D3D0ACEC58F0D0D0E4EC58F0CDD01DECEC
:1043F00059F0CAD02DEC59F0C7D03DEC59F0C4D0DB
:104400004DEC59F0C1D054EC59F0BED0C8EC58F086
:10441000BBD000EC59F0B8D063EC59F0B5D072ECD9
:1044200059F0B2D081EC59F0AFD090EC59F0ACD04B
:1044300097EC59F0A9D0ADEC59F0A6D0A6EC59F004
:10444000A3D02EEC5AF0A0D027EC5AF09DD044EC2B
:104450005AF09AD059EC5AF097D035EC5AF094D0E3
:10446000AAEC56F091D0B0EC56F08ED0AAEC5BF0EE
:104470008BD0B7EC5BF088D0B4EC59F085D0F8EC79
:1044800056F082D0C4EC5BF07FD00CEC5BF07CD0BB
:1044900017EC5BF079D022EC5BF076D031EC5BF07E
:1044A00073D01CEC59F070D0000E03D0010E01D077
:1044B000020EE66EE66AF2EC5BF056D0000E03D018
:1044C000010E01D0020EE66EE66AF4EC5BF04CD011
:1044D00002EC57F059D0010E01D0000EE66EE66AEC
:1044E000C7EC59F041D0010E01D0000EE66EE66A2D
:1044F000D3EC59F039D0010E01D0000EE66EE66A19
:10450000DFEC59F031D0010E01D0000EE66EE66A04
:10451000EBEC59F029D0010E01D0000EE66EE66AF0
:10452000F7EC59F021D0010E01D0000EE66EE66ADC
:1045300003EC5AF019D0010E01D0000EE66EE66AC7
:104540000FEC5AF011D0010E01D0000EE66EE66AB3
:104550001BEC5AF009D0D1EC2FF040EC5BF004D00A
:10456000D1EC2FF043EC5BF0E552E5520DD086EC38
:104570005AF00AD06EEC5AF007D0B6EC56F004D0E0
:10458000E16AE552E16E1450ACEF2DF07E0EE66E5E
:10459000E0EC2FF000EC03F0E552E552120060EC85
:1045A00030F0E652040114691569836B020E835DD5
:1045B00023E240EC2EF0080EE66E500EE66EE66A40
:1045C000E66AE66AE66AE66AE66AAAEC01F0146E52
:1045D000080EE15C02E2E16AE552E16E1450E66E1B
:1045E0000401D5EC2FF0EE52E552E750EF6ECAEC25
:1045F0002DF00401832BDAD7E552E552ACEF2DF014
:1046000060EC30F0DF6A020EDF5C38E280EC30F004
:10461000FE0832E080EC30F0E66E44EC02F0E55249
:10462000000919E0DFCFE6FF2CD8E552040140EC89
:104630002EF0FF0E145D02E0BCEC2EF0FF0E155DB7
:1046400002E0C4EC2EF0040E04EC30F002E2E16A69
:10465000E552E16E14502DEC2EF0EF5008E180ECA5
:1046600030F0E66E0CEC2EF0F350F41005E0DFCFE6
:10467000E6FF07D8E55229D8DF2AC5D7E552ACEFC7
:104680002DF060EC30F0E652FD0EDB500401835D4E
:1046900018E0CAEC2DF0FD0EDB50A5EC30F04FEC2D
:1046A0007AF009EC30F0E8EC7BF000EC30F0E55209
:1046B00017EC30F04FEC7AF0E552E552FD0EDBCF0F
:1046C00083F4E552E552ACEF2DF098EC2DF0190E85
:1046D000E12402E3E168E652E16E9FEC2EF0040172
:1046E000D5EC2FF0EF500B0A02E103EF28F0010A9E
:1046F00002E1E0EF27F0030A02E1CAEF27F0010A26
:1047000002E1C7EF27F00F0A01E194D3010A01E1AA
:1047100075D3030A01E1E7D2010A01E1DCD2070AFD
:1047200001E1B8D2010A01E1F7D1030A2EE0010A42
:1047300002E011EF28F06AEC2DF07CEC04F0E55279
:10474000C4EC30F023EC2EF0EE50ED1002E111EF4E
:1047500028F004011A0E106F040E116FD5EC2FF023
:10476000010EEF6E1769166BB2EC2DF00C690D6936
:104770000E690F69C7EC2FF07E6B050E04EC30F06C
:1047800002E2E16AE552E16E1450E5EC2DF00A0E0A
:10479000E66EE0EC2FF09AEC08F0166E070EE15C86
:1047A00002E2E16AE55284EC2FF00001F31C12E111
:1047B000151C10E1E0EC2FF062EC2EF002E144EC6D
:1047C00030F0EAEC2DF002E669EC2EF002E311EF96
:1047D00028F0A1D2B2EC2DF0E66AE66EE66AE66E4B
:1047E000E66A200E63EC30F037EC2EF002E2E16A6C
:1047F000E55284EC30F0050EABEC2EF003E2050E32
:10480000DE6EDD6A01EC2EF055EC2EF0E0EC2FF0C0
:10481000A5EC2EF002E2E16AE552E16E1650030EBD
:10482000E66EE66A650EE66EE40EE66E000EE66E75
:1048300055EC2EF04DEC2FF002E2E16AE552E16E0C
:104840001450000903E10401186B1BD0040EE66E3E
:10485000E66A600EE66EE40EE66E000EE66E55EC5D
:104860002EF04DEC2FF002E2E16AE552E16E1450B9
:10487000000904E10401010E186F03D00401070EC2
:104880000DD2E5EC2DF0200E63EC30F037EC2EF07D
:1048900002E2E16AE552FDEC2DF02BEC2FF03F0E29
:1048A00012EC31F002E2E16AE552E16E14504EEC96
:1048B0002EF087EC30F088EC2FF01850165C195071
:1048C000175803E2F4EC2FF002D005EC2EF0CCECFC
:1048D0002FF023EC2EF0590EABEC2EF001E2F2D0CB
:1048E00016EC31F002E2E16AE552E16E14504EEC52
:1048F0002EF027EC30F08CEC30F059EC30F08FECEF
:104900002FF073EC2EF007C0E6FF08C0E6FF8FEC37
:104910002FF091EC30F0BCEC95F0166E070EE15CD8
:1049200002E2E16AE552E16E165000090BE1E3ECA8
:104930002EF0185102E1080E01D0090E186FD4ECC8
:104940002EF063D285EC2EF002E0EBEC2EF0FF0EA1
:104950000401145D27E185EC2EF008E011EC2EF047
:1049600001E3DB2A8CEC30F02F0EEF6E96EC2FF08B
:1049700066EC30F0EFEC2FF0EEEC96F0166E050ED4
:10498000E15C02E2E16AE552E16E165096EC2FF02E
:1049900073EC2EF008EC31F00750EE261550ED22A6
:1049A000EBEC2EF066EC30F01406000E155A070EF4
:1049B00014C0DBFF080E15C0DBFF070EDBCF14F0C1
:1049C000080EDBCF15F01A0E141802E1040E1518AC
:1049D0000FE0070EDBCFE9FF080EDBCFEAFFEF5059
:1049E0002E0806E0070EDB06080EE7E2DB06E5D739
:1049F000070EDB2A080E01E3DB2A0401196B0B0EFC
:104A0000E76E1919E8AE02D0E73402D0E750195D1D
:104A100021E2D90E146E550E156E010E166E19C4D4
:104A200017F0186A196A17AE02D0186819686FEC87
:104A30002DF09DEC2FF000EC69F01A6E050EE15C94
:104A400002E2E16AE552E16E1A50000903E0040156
:104A5000192BD5D7E3EC2EF0FF0E145D15E0A4EC76
:104A60002FF0020B11E014C4E6FF09EC54F0E552FC
:104A7000EAEC2FF050EC30F0EFEC2FF085EC50F03A
:104A8000E552E5520401156FE5EC2DF0200E12EC15
:104A900031F002E2E16AE55284EC30F0EE50ED10C4
:104AA00029E00401010E166F55EC30F0E4EC30F013
:104AB000DF06010E01E2DB06F4EC2FF0620E7CEC67
:104AC0002FF003E30401050EE9D016EC31F002E209
:104AD000E16AE552E16E1450F35004011027F450DE
:104AE000112310C4E9FF11C4EAFF102B000E11239B
:104AF000260EEF6EB2EC30F002E2E16AE552FDEC18
:104B00002DF0B6EC30F002E2E16AE552E16E1650AB
:104B10000401D4EC2EF0EF6EB2EC30F002E2E16A68
:104B2000E55284EC30F0FF0EEE1812E1FF0EED18A6
:104B30000FE1E0EC2FF062EC2EF002E144EC30F0FB
:104B4000EAEC2DF002E669EC2EF001E36AD2E3D044
:104B5000B2EC2DF023EC2EF0010EEE180FE1ED502B
:104B60000DE1020ED1EC30F002E2E16AE552E16EB5
:104B700014500401D5EC2FF0030E47D12BEC2FF08D
:104B80003A0E63EC30F09AEC08F0166E070EE15C1A
:104B900002E2E16AE55284EC2FF0020E1426000EC8
:104BA0001522020E14C0DBFF030E15C0DBFF060E3C
:104BB000DB6A08EC31F0100EABEC2EF004E2B6EC40
:104BC00030F065E262D0CCEC2EF0090F28EC2EF02C
:104BD000B9EC30F002E2E16AE552E16E1450D950CE
:104BE000090F146E000EDA20156E020EDBCF16F0E0
:104BF000030EDBCF17F01606000E175A14501624BA
:104C0000E96E15501720EA6EEF6A2EEC30F0050EB3
:104C1000DB6ADB50146E156A030E7CEC2FF028E281
:104C20004B0E146E560E156E010E166E050EDBCF72
:104C300017F0186A196A6FEC2DF0D950090F28EC9B
:104C40002EF0B7EC96F01A6E050EE15C02E2E16A16
:104C5000E552E16E1A50000908E1050EDBCFE6FFD0
:104C6000A9DAE5529FEC2EF003D0050EDB2AD1D74E
:104C7000060EDB5007E0B2EC30F002E2E16AE552EA
:104C8000FDEC2DF0B6EC30F002E2E16AE552E16EA7
:104C9000165042D7800E175D03E2030E186FB3D093
:104CA00010C4E9FF11C4EAFF59EC30F0F3CF10F45F
:104CB000F4CF11F4080E0401185D01E1A4D0D5EC85
:104CC0002FF0040EEF6E165102E1B0EC2EF0060E3E
:104CD000DB6A166BA6D12DEC8AF0020801E1A1D1A6
:104CE0000401B0EC2EF00CEC31F0166A176AF350A8
:104CF00004010C1915E115500D1912E116500E1989
:104D00000FE117500F190CE10BE1EAEC2DF002E670
:104D100069EC2EF005E26CEC30F043EC2EF075D02F
:104D2000180515E0090EE76E1819E8AE02D0E73451
:104D300002D0E750185D5DE30B0EE76E1819E8AE80
:104D400002D0183503D0E750D880185552E3090E29
:104D5000E76E1819E8AE02D0E73402D0E750185DCC
:104D600015E30B0EE76E1819E8AE02D0183503D024
:104D7000E750D88018550AE3C9EC2BF0E76E040E13
:104D8000E7CFDBFFDB5008E104013DD02FEC8AF0D8
:104D9000E76E040EE7CFDBFF040EDB5002080BE1E9
:104DA000E0EC2FF02FEC2FF0010E0C5F000E0D5BEE
:104DB0000E6B0F6B36D1040EDB041BE1E0EC2FF021
:104DC0002FEC2FF00E6B0F6BB2EC2DF0D7EC2EF01A
:104DD0000C5DEE500D59EE500E59EE500F5906E293
:104DE0006AEC2DF062EC2EF001E01BD10401060EFE
:104DF00009D00401D5EC2FF0060EEF6EFF0E145D06
:104E000006E1040E186FE2EC2DF0EF6EBDD0C7EC9A
:104E10002FF0FF0E155D05E1046905690669076954
:104E200005D0040EE66E040E8DEC2EF00401E2ECCB
:104E30002DF0EF6E020E04EC30F002E2E16AE55272
:104E4000E16E1450210E146E560E156E010E166E84
:104E500018C417F0186A196A17AE02D018681968D2
:104E60006FEC2DF0A2EC30F00C0E0401185D1AE18D
:104E700055EC2EF06AEC2DF0F2EC03F000EC30F083
:104E8000380EE66EE40EE66E000EE66EA2EC30F032
:104E900055EC2EF0E0EC2FF0F2EC03F000EC30F0EB
:104EA0001FEC31F00401185105E0180503E043EC54
:104EB0002EF0A7D00B0E195D1DE0290EE66EE40E54
:104EC000E66E000E63EC30F0C6EC2DF0FD0E146EB5
:104ED000550E156E010E166E19C417F0186A196A70
:104EE00017AE02D0186819686FEC2DF0A2EC30F004
:104EF0001FEC31F0A4EC2FF0010B08E0100EE66E71
:104F0000E40EE66E000EE66EA2EC30F0000EE66EE9
:104F1000E40EE66E000EE66EA2EC30F00401180519
:104F20000CE0E868041908E1E868051905E1E8689B
:104F3000061902E1E868071907E0F70EE66EE30ECE
:104F4000E66E000EE66E10D0EE0EE66EE30EE66E36
:104F5000000E63EC30F0C6EC2DF0EA0EE66EE30EC8
:104F6000E66E000EE66E04016AEC2DF0C6EC2DF044
:104F70001FEC31F00401165104E0D5EC2FF0080EBF
:104F800002D03EEC30F0EF6E060EDB6A4AD03EEC0B
:104F900030F0EF6E060EDB6A51D8000907E0BCEC7A
:104FA0002EF043EC2EF0EF6E9FEC2EF0E0EC2FF0A5
:104FB00064EC2FF0F350F41034E19FEC2EF031D07C
:104FC0009FEC2EF06AEC2DF064EC2FF0100EF35CE9
:104FD000000EF45826E308C4E6FF09C4E6FF0AC43D
:104FE000E6FF0BC4E6FF05EC1FF00FEC31F0040107
:104FF0000C510D110E110F1114E1060EDB6A46EC77
:105000002EF0EF6E0ED0FF0E145D02E0BCEC2EF021
:10501000FF0E155D02E0C4EC2EF06CEC30F040ECBD
:105020002EF0060EDB5002E16DEF23F0190EE15C6D
:1050300002E2E16AE552E16EACEF2DF098EC2DF062
:10504000450EE12402E3E168E652E16EE0EC2FF068
:10505000CDEC02F0E5524EEC2EF088EC2FF01A6AFF
:105060001B6AD7EC2EF00401045D1C6EEE5005594E
:105070001D6EEE5006591E6EEE5007591F6E1C50E5
:10508000185C1D5019581E501A581F501B5805E225
:1050900005EC2EF0166A176A0DD0D7EC2EF0045DE1
:1050A000146EEE500559156EEE500659166EEE5000
:1050B0000759176ECCEC2FF0F4EC2FF014500027AA
:1050C00015500123000E022303234CEC30F02BE299
:1050D00038EC2FF003E2F4EC2FF003D0400E146E06
:1050E000156AEFEC2FF0D950050F28EC2EF014C400
:1050F000E6FF23EC51F0186E050EE15C02E2E16A76
:10510000E55220EC30F002E1010E4AD0CCEC2EF05A
:10511000050FC9EC30F002E2E16AE552E16E14508D
:105120002EEC30F0D2D7D7EC2EF00401041937E181
:10513000EE50051934E1EE50061931E1EE50071931
:105140002EE12DE1D5EC2FF00A0EEF6E0C6B0D6BFE
:105150000E6B0F6B1CEC30F069EC2FF055EC30F05F
:1051600069EC2FF0000906E0ABEC2FF0040EDB50E9
:105170007E08F4E1ABEC2FF0080EE66E040E8DEC29
:105180002EF0040EE66E040E8DEC2EF0000907E101
:1051900004010469056906690769C4EC2EF0000E74
:1051A000146E450EE15C02E2E16AE552E16E1450D4
:1051B000ACEF2DF098EC2DF0FD0EDB0402E108D8E9
:1051C00005D0FD0EDB50020801E198D8ACEF2DF0C0
:1051D00098EC2DF02C0EE12402E3E168E652E16E3A
:1051E000040117BF83D0060ED1EC30F002E2E16A71
:1051F000E552E16E1450BCEC30F002E2E16AE55297
:10520000FDEC2DF0030EDE26000EDD22FC0EDE1678
:10521000DD6A87EC30F0240E165C000E175803E2AE
:10522000F4EC2FF003D0240E146E156ACCEC2FF0A2
:10523000B4EC2EF04CEC30F029E2040E94EC2EF09D
:10524000B9EC30F002E2E16AE552E16E1450030E6F
:1052500094EC2EF0040E94EC2EF082EC67F0146EB9
:10526000080EE15C02E2E16AE552E16E145023ECC3
:105270002EF0040EEE5E000EED5AD9502A0F49ECC6
:105280002EF0030EEE26000EED22D4D7B2EC2FF056
:10529000EF6ADE6ADD6AB4EC2EF0F4EC2FF0280E33
:1052A0007CEC2FF00FE2B2EC2FF0EF503A080AE05E
:1052B000DF2A010E01E3DB2A2A0EDB2A2B0EEDE3A7
:1052C000DB2AEBD72A0EDBCFE9FFDB2A2B0EDBCF65
:1052D000EAFF01E3DB2AEF6A72EC30F096EC30F083
:1052E00009EC8AF00FEC31F00401176F2C0EE15C31
:1052F00002E2E16AE552E16EACEF2DF098EC2DF0A0
:105300000C0EE12402E3E168E652E16EBCEC30F001
:1053100002E2E16AE552FDEC2DF0F4EC2FF00A0E0A
:105320007CEC2FF006E30401020E186FC7EC2FF09F
:1053300022D017EC30F096EC30F0B9EC30F002E20D
:10534000E16AE552FDEC2DF079EC30F0DE501424EA
:10535000E96EDD501520EA6EEF6A96EC30F04FEC06
:10536000A7F0E552E55206C000F407C001F408C0FA
:1053700002F409C003F40C0EE15C02E2E16AE552BA
:10538000E16EEAD3D5DB090EE12402E3E168E652DF
:10539000E16EE9EC30F0040EF3CFDBFF050EF4CF45
:1053A000DBFFFC0EDBCF08F0FD0EDBCF09F0020EB9
:1053B00008C0DBFF030E09C0DBFF08C0DEFF09C029
:1053C000DDFFD950040F49EC2EF0EE50ED1064E0F3
:1053D00004EC2FF001E3DB2A060EEFCFDBFF040E17
:1053E000DB06050E01E2DB06060EDB503D0804E09D
:1053F000060EDB50260806E111EC2EF001E3DB2A55
:10540000EF6ADFD7060EDB502B0806E111EC2EF019
:1054100001E3DB2A200E37D0060EDB50250835E1EC
:10542000040EDBCF14F0050EDBCF15F0020E7CEC82
:105430002FF005E2040EDB6A050EDB6AC2D704EC2E
:105440002FF001E3DB2A080EEFCFDBFF04EC2FF097
:1054500001E3DB2A070EEFCFDBFF040EDB06050EB0
:1054600001E2DB06040EDB06050E01E2DB069DEC25
:105470002FF0B5EC68F0E552E552E66ED2DB01E3C1
:10548000DB2AE552E750EF6E9CD7CBDB01E3DB2A4A
:10549000060EDBCFEFFF95D7C4DB01E3DB2AEF6A13
:1054A00027EC30F0EF6AB1DB14C0F3FF15C0F4FF56
:1054B000090EE15C02E2E16AE552E16E4DD338DBB0
:1054C0005AEC2EF01CE0E3EC2FF032EC30F097ECCD
:1054D00096F00FEC31F000090FE1F3EC2EF032EC16
:1054E00030F007EC97F012EC2FF0F324146E175005
:1054F000F4201AEC2FF005D021DB20DBE1D7F36A92
:10550000F46A2AD315DBD6DB2BE0F5DBECDB09C034
:1055100016F0142A000E15221622EFEC2FF0EBDB0A
:10552000E3EC2FF0BCEC95F0176E070EE15C02E2A5
:10553000E16AE552E16E175000090FE1F3EC2EF03D
:10554000DADB15EC97F0E55212EC2FF00724146E1D
:10555000175008201AEC2FF005D0F0DAEFDAD3D785
:10556000F36AF46AF9D260EC30F087DB3D0EE66E48
:1055700059EC2FF002E2E16AE552E16E1450DF6E61
:10558000D950FC0FD5DB04E095DB02E1FEEC2EF0F8
:10559000DF50E552E1D260EC30F06FDB260EE66EB4
:1055A00059EC2FF002E2E16AE552E16E1450DF6E31
:1055B000020EDF5C1DE1E0EC2FF02EDB166A176AAD
:1055C00004010051F31814E10151151811E10251C1
:1055D00016180EE1035117180BE10AE14EDBE66ADB
:1055E00059EC2FF002E2E16AE552E16E1450DF6EF1
:1055F000D950FC0F9DDB04E05DDB02E0FEEC2EF0F9
:10560000DF50E552A9D260EC30F0E652E652FD0ED2
:10561000DB500DE0DADAFD0EDBCFE6FFE0EC2FF039
:1056200026DB02E2E16AE552E16E145005D0E0ECBF
:105630002FF07CEC04F0E552DE52C4EC30F0DD5289
:10564000D950010F26DBFF0EEE1805E1FF0EED1815
:1056500002E1020E9BD06FEC2FF07CEC2FF00CE2FD
:10566000D950FB0F65DB08E0D7EC30F002E2E16ACD
:10567000E552EFEC30F064D0D950FB0F59DB08E174
:10568000D7EC30F002E2E16AE552EFEC30F068D09E
:10569000B9EC2FF0F90EDBCF16F0FA0EDBCF17F0D6
:1056A000020E165E000E175A1450165C155017584D
:1056B0004AE2F90EDBCF18F0FA0EDBCF19F0020E3A
:1056C000185E000E195A18C0E6FF19C0E6FFDCECA0
:1056D00030F0D5EC04F01A6E050EE15C02E2E16AEE
:1056E000E552E16E1A50EAEC2FF062DAF90EDBCFE8
:1056F0001AF0FA0EDBCF1BF0020E1A5E000E1B5AD8
:10570000010EDBCF08F0020EDBCF09F01A50085C67
:10571000186E1B500958196E18C0E6FFCDDBDAD998
:10572000D5EC04F01C6E050EE15C02E2E16AE55284
:10573000E16E1C503DDAD3DB145E000E155A81DB9E
:10574000010EDF6E0ED067DBDCEC30F036DB02E200
:10575000E16AE552E16E18502BDAB9EC2FF071DBFB
:10576000DF6AFD0EDB5011E01CEC30F0E4EC30F0B1
:10577000146E156A166A176A14AE03D01568166897
:1057800017681450040114EC30F0DF5000EC30F0D6
:10579000E3D1CED9140EE12402E3E168E652E16ED2
:1057A000040118510A0A01E1A3D0010A01E184D0E1
:1057B000020A01E0FCD009DA040EE66EE66AE50EA4
:1057C000E66EE30EE66E000E63EC30F06CDB02E298
:1057D000E16AE552E16E1450F4EC30F09AEC30F0EE
:1057E000FF0EEE1802E1FF0EED1856E0100EDBCFB3
:1057F000E6FF110EDBCFE6FF1CEC30F0B9EC30F029
:1058000002E2E16AE552E16E1450D9D90CEC31F0B4
:105810000A0EF35C000EF45807E2100EDB2A110E9C
:1058200001E3DB2A010EC4D00A0EE66EE66A39EC0B
:1058300030F0B9EC30F002E2E16AE552E16E14506A
:10584000BED90A0EE66EE66ADA0EE66EE30EE66E84
:10585000000EE66E39EC30F020DB02E2E16AE55240
:10586000E16E1450000913E104010A0E186F1AECDE
:1058700052F00401146F060EE66EE66A55EC30F045
:1058800036DB02E2E16AE552E16E145003D0040116
:105890000B0E186F020E8CD093DBBED9040E145E73
:1058A000000E155A9CDB1AEC31F002E2E16AE55277
:1058B000E16E165084D97BD00CEC31F079D90AD93D
:1058C0006BEC04F0E552640E0401005D000E01591A
:1058D000000E0259000E035966E3D880000E0055F1
:1058E000000E0155000E0255800E035560E25BD09C
:1058F000F1D87CEC04F0E5527CDB005D15500159D9
:10590000165002591750035906E2100E00C4DBFF6F
:10591000110E01C4DBFF9AEC30F0000E1CDA37E206
:10592000100EDBCF16F0110EDBCF17F0100E165C49
:10593000000E175803E2FBEC30F003D0100E146E8B
:10594000156A4DDB96DB3CDB38DA02E2E16AE552B0
:10595000E16E1850120EF3CFDBFF130EF4CFDBFF16
:105960000FDB166A176A145004015EDB09DBE2DB09
:10597000A6DA120EDBCFE6FF130EDBCFE6FF79DBF4
:10598000B6DA02E2E16AE552E16E1450C4D70401CE
:1059900000510111021103110AE1010EE66E9EECA5
:1059A00052F0E55204010ED9EF6E000E01D0010E47
:1059B000146E140EE15C02E2E16AE552E16E1450ED
:1059C000CBD0B6D8450EE12402E3E168E652E16EA1
:1059D00004010C510D110E110F1117E1FB0EDBCF5D
:1059E000E6FFFC0EDBCFE6FFFD0EDBCFE6FFE3ECD0
:1059F0004FF0E55243DA67E083DA09EC54F0E55200
:105A0000F3CF0CF4F4CF0DF423D00CC4E6FF0DC497
:105A1000E6FF85EC50F032DA56E0020EE66E0EC478
:105A200014F00FC415F0166A176A0EC4E6FF0FC40F
:105A3000E6FF16C0E6FF17C0E6FF62DA8BEC51F016
:105A4000186E060EE15C02E2E16AE552E16E185062
:105A5000B7DACDEC02F0E55297DB1EDB28E208DA7C
:105A600002E2C2DA03D0400E146E156AB8DA1DDB0A
:105A700047DA23EC51F0186E050EE15C02E2E16AB0
:105A8000E552DEDA0AE13CDAC4EC50F0E5520401FA
:105A90000C6B0D6B0E6B0F6B16D07ED9040F79DB80
:105AA00002E2E16AE552E16E1450D8DAD6D728DA7C
:105AB000F0EC53F0E55206C00EF407C00FF420DA04
:105AC000C4EC50F0E552450EE15C02E2E16AE552B9
:105AD000E16E42D06ADAEE52EF50E66E1200030E2B
